:020000040000FA
:060000000A128A110C280F
:10000800FE00030EF0000A08F1000A168A15742B88
:100018000A128A110F2883160313E701E801E90180
:10002800EA01EB01EC01831603179001910192019B
:10003800930183010A128A11872E83160313C700BE
:10004800AD30B1003108BA00702E25304E060319C4
:100058002E282F283B284E08B10047088400310875
:10006800831380000130B1003108C707702EBB012F
:10007800BC012C0884000A168A110A200A128A1167
:100088002E3A031D482849288E283C170130B10014
:100098003108AC07C801C9017D280A30F2000030D8
:1000A800F300831603134908F5004808F4000A16FC
:1000B8008A15E1230A128A11730883160313C900EB
:1000C8007208C8002C0884000A168A110A200A122D
:1000D8008A11D03EB100FF3003180030B200310859
:1000E800C8070318C90A3208C9070130B100310826
:1000F800AC072C0884000A168A110A200A128A11F1
:100108000A168A1598230A128A1103188C288D2832
:1001180051289428C801C9013C1694283C15B028D8
:10012800013083160313AC07FF302C0784000A162E
:100138008A110A200A128A11CE00B100B2013208CF
:10014800003A0319A828702E3108003A0319822EA4
:10015800663A03199228702E00303B05B10007302B
:100168003C05B200310832040319BB28BC282B2EE9
:100178003C1EBF28C028C4280630C8000030C9006B
:100188003A08840083130008CA00840A0008CB00D8
:10019800840A0008CC00840A0008CD000430B100AD
:1001A8003108BA074D08F5004C08F4004B08F30075
:1001B8004A08F2000030F9000030F8000030F7007B
:1001C8000030F6000A168A155C270A128A110318ED
:1001D800EE28EF280C29831603134D08F5004C0868
:1001E800F4004B08F3004A08F2000A168A155C234B
:1001F8000A128A11750883160313CD007408CC00FF
:100208007308CB007208CA000330BB040030BC047A
:1002180083160313C101C2014D08F5004C08F40010
:100228004B08F3004A08F2000030F9000030F800EB
:100238000030F7000030F6000A168A15F2240A1278
:100248008A11031828292929292A03108316031338
:100258004C0D4D0D823EC100FF3003180030C20026
:10026800FF30C1070318C20AFF30C2070330F2008B
:100278000030F3004208F5004108F4000A168A1518
:10028800E1230A128A11730883160313C200720845
:10029800C1000A3083120313A0000030A1008316A6
:1002A8000313420883120313A300831603134108A0
:1002B80083120313A2000A168A11D3200A128A1184
:1002C80083120313210883160313C2008312031336
:1002D800200883160313C100C21F732974297A29C1
:1002E800FF30C1070318C20AFF30C2074103FF3AB3
:1002F8000A128A159D240A128A11831203134F08C1
:1003080083160313C600831203134E0883160313C0
:10031800C500831203134D0883160313C400831208
:1003280003134C0883160313C3004D0883120313E9
:10033800B500831603134C0883120313B400831605
:1003480003134B0883120313B300831603134A08DD
:1003580083120313B2008316031346088312031390
:10036800B90083160313450883120313B8008316D4
:100378000313440883120313B700831603134308B7
:1003880083120313B6000A128A153C210A128A1135
:1003980083120313350883160313C600831203134D
:1003A800340883160313C500831203133308831616
:1003B8000313C40083120313320883160313C30004
:1003C8004608F5004508F4004408F3004308F20025
:1003D8003F30F9008030F8000030F7000030F600B8
:1003E8000A168A155C270A128A110318FC29FD29A6
:1003F800062AFF3083160313C1070318C20AFF3009
:10040800C207292A831603134608F5004508F40095
:100418004408F3004308F2004130F9002030F800A6
:100428000030F7000030F6000A168A155C270A1219
:100438008A11031C202A212A292A01308316031332
:10044800C1070318C20A0030C207831603134908FC
:10045800803AFF0080307F02031D342A0D304802A5
:100468000318372A382A7F2A8316031348080A16DE
:100478008A11B5220A128A11831203134F08E30066
:100488004E08E2004D08E1004C08E0008316031313
:100498004D0883120313E700831603134C088312D5
:1004A8000313E600831603134B0883120313E500B6
:1004B800831603134A0883120313E4000A168A11E9
:1004C800C0240A128A1183120313630883160313C4
:1004D800CD0083120313620883160313CC00831222
:1004E8000313610883160313CB00831203136008F8
:1004F80083160313CA00831603134208803AFF00C9
:1005080080307F02031D8A2A0A30410203188D2A8F
:100518008E2ADF2A831603134D08F5004C08F400D1
:100528004B08F3004A08F2000030F9000030F800E8
:100538000030F7000030F6000A168A15F2240A1275
:100548008A110318A82AA92A512B831603134D08C8
:1005580083120313E200831603134C088312031358
:10056800E100831603134B0883120313E00083167C
:1005780003134A0883120313DF000A128A150220A4
:100588000A128A11831203136208610460045F046B
:10059800031DCF2AD02A512B831603134208803A11
:1005A800FF0080307F02031DDB2A02304102031C5A
:1005B800DE2ADF2A512B831603134608F500450867
:1005C800F4004408F3004308F2004030F900893091
:1005D800F8007030F7005F30F6000A168A155C27BD
:1005E8000A128A110318F92AFA2A032BF7308316FC
:1005F8000313C1070318C20AFF30C2070B2BF830D8
:1006080083160313C1070318C20AFF30C207410843
:100618000A128A159D240A128A11831203134F089D
:1006280083160313C600831203134E08831603139D
:10063800C500831203134D0883160313C4008312E5
:1006480003134C0883160313C3004D08F5004C0828
:10065800F4004B08F3004A08F2004608F900450880
:10066800F8004408F7004308F6000A128A157E20AD
:100678000A128A11750883160313C0007408BF0094
:100688007308BE007208BD000030CD000030CC00F9
:100698000030CB000030CA00D32B831603134D085B
:1006A80083120313E200831603134C088312031307
:1006B800E100831603134B0883120313E00083162B
:1006C80003134A0883120313DF000A128A15022053
:1006D8000A128A1183120313620883160313C000D7
:1006E80083120313610883160313BF0083120313D5
:1006F800600883160313BE00831203135F08831672
:100708000313BD00400883120313A70083160313C5
:100718003F0883120313A600831603133E088312AF
:100728000313A500831603133D0883120313A400C3
:1007380000300A168A113C210A128A118312031307
:10074800270883160313A7008312031326088316AA
:100758000313A60083120313250883160313A500A9
:1007680083120313240883160313A4004D08AB0057
:100778004C08AA004B08A9004A08A8000A168A15BE
:1007880042250A128A11831603132708CD0026086A
:10079800CC002508CB002408CA00C101C201CE0143
:1007A800CE0A4E08B10001300310B10DFF3E031D03
:1007B800D82B0310310D693E84000A168A110A20CD
:1007C8000A128A11B2000A168A110A200A128A111C
:1007D800B3000A168A110A200A128A11B4000A16EE
:1007E8008A110A200A128A11B50035084002031D31
:1007F800072C34083F02031D072C33083E02031D53
:10080800072C32083D0203180A2C0B2C0C2C162C32
:100818000130B1003108CE070A304E06031D152CF1
:10082800162CD52B03303B05B10000303C05B20037
:10083800310832040319212C222C942C2D30B100BC
:10084800470884003108831380000130B100310863
:10085800C707942C4E08B10001300310B10DFF3EBC
:10086800031D312C0310310D693E84000A168A11CC
:100878000A200A128A11F2000A168A110A200A129C
:100888008A11F3000A168A110A200A128A11F40042
:100898000A168A110A200A128A11F5004008F9007E
:1008A8003F08F8003E08F7003D08F6000A168A15CA
:1008B800F4260A128A11750883160313C6007408F1
:1008C800C5007308C4007208C3000030F50000308A
:1008D800F4000030F3000A30F2004608F900450839
:1008E800F8004408F7004308F6000A168A1592250E
:1008F8000A128A11750883160313C6007408C50006
:100908007308C4007208C3004308303EB1004708AA
:1009180084003108831380000130B1003108C70713
:100928000130CE024E0A031D9A2C9B2C2E2CAF2C84
:10093800303083160313B10047088400310883134D
:1009480080000130B1003108C707FF30C107031824
:10095800C20AFF30C2074208803AFF0080307F0297
:10096800031DB82C013041020318BB2CBC2C9C2C55
:10097800831603134908803AFF0080307F02031D65
:10098800C72C09304802031CCA2CCB2CD22C0830A7
:1009980083160313B1003108CE00D82C8316031335
:1009A8004808B1003108CE004E08B100B201310844
:1009B800C8023208031CC903C9024E080319E52CF2
:1009C800E62CF12C2E30B10047088400310883133F
:1009D80080000130B1003108C7074E080A128A1595
:1009E8009D240A128A11831203134F0883160313D6
:1009F800B900831203134E0883160313B800831239
:100A080003134D0883160313B700831203134C080E
:100A180083160313B600390883120313B90083162B
:100A28000313380883120313B80083160313370817
:100A380083120313B70083160313360883120313B4
:100A4800B600831603134D0883120313B5008316EB
:100A580003134C0883120313B400831603134B08C3
:100A680083120313B300831603134A088312031374
:100A7800B2000A128A153C210A128A118312031342
:100A88003508E2003408E1003308E0003208DF00EE
:100A98000A128A1502200A128A11831203136208A5
:100AA80083160313C000831203136108831603130C
:100AB800BF0083120313600883160313BE0083125A
:100AC80003135F0883160313BD000B2E4E08B100F5
:100AD80001300310B10DFF3E031D6D2D0310310DC4
:100AE800693E84000A168A110A200A128A11F20045
:100AF8000A168A110A200A128A11F3000A168A11A4
:100B08000A200A128A11F4000A168A110A200A1207
:100B18008A11F5004008F9003F08F8003E08F70080
:100B28003D08F6000A168A15F4260A128A11750875
:100B380083160313C6007408C5007308C40072083E
:100B4800C3000030F5000030F4000030F3000A3034
:100B5800F2004608F9004508F8004408F700430881
:100B6800F6000A168A1592250A128A117508831644
:100B78000313C6007408C5007308C4007208C300D4
:100B88004308303EB10047088400310883138000D1
:100B98000130B1003108C7074E08B1000130031019
:100BA800B10DFF3E031DD32D0310310D693E8400A6
:100BB8000A168A110A200A128A11F2000A168A11E4
:100BC8000A200A128A11F3000A168A110A200A1248
:100BD8008A11F4000A168A110A200A128A11F500ED
:100BE8004008F9003F08F8003E08F7003D08F60005
:100BF8000A168A1592250A128A1175088316031394
:100C0800C0007408BF007308BE007208BD00013040
:100C1800CE024E0A031D112E122E6A2D242E3030BC
:100C2800B100470884003108831380000130B10007
:100C38003108C707FF30C8070318C90AFF30C907BA
:100C480048084904031D292E2A2E132E702E480801
:100C58004904031D302E312E3F2E40083F043E0428
:100C68003D04031D382E392E3F2E0130C8070318C6
:100C7800C90A0030C9074908803A803C031D462E3E
:100C880048084E020318492E4A2E4B2E5A2E831618
:100C980003134908803AB10080303102031D562EF3
:100CA8004E0848020318592E5A2E5A2E033083161E
:100CB80003133B05B10000303C05B2003108320493
:100CC8000319672E682E702E2D30B1004708840056
:100CD80031088313800036280130AC07FF302C0719
:100CE80084000A168A110A200A128A11B1003108F2
:100CF800CE004E08031D812E822E29284708840025
:100D08008313800108000A168A15AA230A128A1179
:100D180083160313051488010A168A1597260A12E2
:100D28008A1183160313061408108312031308107C
:100D38008B178316031301170B1683160313670308
:100D48006804031DA82EA92EC82E06308316031387
:100D5800D0002F30CF00CF0BAF2ED00BAF2EB42E3C
:100D68008312031308140D3083160313D000FB30CD
:100D7800CF00CF0BBD2ED00BBD2E8312031308104E
:100D880083160313E701E8010A168A1586230A1257
:100D98008A11730883160313EC007208EB006B08C2
:100DA80083120313A400831603136C08831203131E
:100DB800A500A601A70100300A168A113C210A12D3
:100DC8008A11831203132708B9002608B8002508DA
:100DD800B7002408B6004030B5009C30B400673036
:100DE800B3001A30B2000A128A153C210A128A117D
:100DF800831203133508E2003408E1003308E000E9
:100E08003208DF000A128A1502200A128A11831298
:100E18000313600883160313EA00831203135F08A1
:100E280083160313E9006A08FB006908FA000A3010
:100E3800F8000030F9000A168A15AC240A128A1143
:100E4800780883160313CF007908D000D101D201A6
:100E5800520883120313A700831603135108831241
:100E68000313A60083160313500883120313A50067
:100E7800831603134F0883120313A40000300A16C5
:100E88008A113C210A128A11831203132708831638
:100E9800031793008312031326088316031792007F
:100EA8008312031325088316031791008312031373
:100EB8002408831603179000913083160313CF007C
:100EC8004F08AC0083160317130883160313B000EA
:100ED80083160317120883160313AF00831603172C
:100EE800110883160313AE00831603171008831620
:100EF8000313AD00D3300A128A1121200A128A1175
:100F08000A168A1567230A128A11F601F60A0130B1
:100F18000A168A15E6250A128A11D330F70000301E
:100F2800F8000A168A1566240A128A11A030F700FA
:100F38008030F8000A168A1566240A128A11A2302F
:100F4800F7008030F8000A168A1566240A128A11FA
:100F58000B3083160313D1002630D0005D30CF004C
:100F6800CF0BB42FD00BB42FD10BB42FA12E0A1254
:100F78008A110C28720873040319C32FC42FF32F86
:100F8800F701F70AD22F01300310F20DF30DFF3EDF
:100F9800031DC82F0130F6007608F707F31FD52F79
:100FA800D62FC72F73087502031DDC2F7208740231
:100FB800031CDF2FE02FE62F7208F4027308031CCE
:100FC800F503F50201300310F30CF20CFF3E031D8C
:100FD800E72F0130F702031DF22FF32FD62F7508E4
:080FE800F3007408F200080098
:10100400031083120313610D620DE3006308E9000A
:101014006908031D0E280F2818280030E20000304C
:10102400E1000030E0000030DF007D285F08E300CD
:101034006008E4006108E5006208E6001F30031060
:10104400E60CE50CE40CE30CFF3E031D21286308C9
:10105400E7006708E800E117FF30DF05FF30E0052F
:10106400FF30E1050030E2059630E902E91F3B2834
:101074003C2856286908803A973E0318422843289A
:1010840044280F2801300310E20CE10CE00CDF0CC3
:10109400FF3E031D45280130E3006308E907031DF3
:1010A4005428552844286D2820306902031C5B28E5
:1010B4005C2868280F280130E3000310DF0DE00DE1
:1010C400E10DE20DE30B5F280130E9026908031D1D
:1010D4006C286D285D2868080319712872287D28FA
:1010E400DF09E009E109E209DF0A0319E00A03194B
:1010F400E10A0319E20A08000310740D750DFA00E1
:101104007A0883120313A5002508031D8A288B2857
:1011140094280030F5000030F4000030F300003073
:10112400F2003B290310780D790DFA007A08A40027
:101134002408031D9E289F28A0288B28F417FF301D
:10114400F205FF30F305FF30F4050030F505F8171C
:10115400FF30F605FF30F705FF30F8050030F905DC
:101164000030A3000030A2000030A1000030A00035
:101174007F30A502A0302407FA007A08A5022030A7
:10118400FA007A08A4000130FA000310A00DA10DA2
:10119400A20DA30DFA0BC72879087502031DDC28DC
:1011A40078087402031DDC2877087302031DDC2809
:1011B40076087202031CDF28E028EF287608F20282
:1011C4007708031C770FF3027808031C780FF402E6
:1011D4007908031C790FF50220140130FA0003107A
:1011E400F20DF30DF40DF50DFA0BF1280130A40204
:1011F400031DFD28FE28C528A51F012902291C2935
:101204002508803A9F3E0318082909290A298B28B2
:1012140001300310A30CA20CA10CA00CFF3E031D73
:101224000B290130FA007A08A507031D1A291B2986
:101234000A29332920302502031C212922292E2999
:101244008B280130FA000310A00DA10DA20DA30DEF
:10125400FA0B25290130A5022508031D322933295B
:1012640023292308F5002208F4002108F3002008AC
:10127400F20008008312031335088039BA003A08D3
:10128400BF003508BA003A07BB003B08C500B41FCD
:101294004C294D294E29451445080319522953292F
:1012A4006229450A031D5729582960290030B500D1
:1012B4000030B4000030B3000030B200B4176A2923
:1012C4000030B5000030B4000030B3000030B2008C
:1012D40039088039BA003A08BF063908BA003A0713
:1012E400BB003B08C400B81F782979297A29441423
:1012F400440803197E297F298E29440A031D832962
:1013040084298C290030B9000030B8000030B700BF
:101314000030B600B81796290030B9000030B80084
:101324000030B7000030B600440803199A299B29FD
:10133400A0294508031D9F29A029A9290030B5002B
:101344000030B4000030B3000030B2009C2C3208EE
:10135400BA003A08F20038080A168A1506240A1256
:101364008A15730883120313CB007208CA004A0853
:10137400BA00BB01BC01BD013D08C3003C08C2006A
:101384003B08C1003A08C0004B08BA00BB01BC01CD
:10139400BD013D08C9003C08C8003B08C7003A0825
:1013A400C6003308BA003A08F20037080A168A154C
:1013B40006240A128A15730883120313CB007208D9
:1013C400CA004A08BA00BB01BC01BD013A08C00703
:1013D4003B0803110318013E0319F129C1073C0816
:1013E40003110318013E0319F829C2073D0803112C
:1013F4000318013E0319FF29C3074B08BA00BB01B8
:10140400BC01BD013A08C6073B0803110318013E9D
:1014140003190D2AC7073C0803110318013E0319D9
:10142400142AC8073D0803110318013E03191B2A97
:10143400C9073408BA003A08F20036080A168A15B1
:1014440006240A128A15730883120313CB00720848
:10145400CA004A08BA00BB01BC01BD013A08C00772
:101464003B0803110318013E0319392AC1073C083C
:1014740003110318013E0319402AC2073D08031152
:101484000318013E0319472AC3074B08BA00BB01DE
:10149400BC01BD013A08C6073B0803110318013E0D
:1014A4000319552AC7073C0803110318013E031901
:1014B4005C2AC8073D0803110318013E0319632A77
:1014C400C9070830BA000310C00DC10DC20DC30D09
:1014D400BA0B652A3308BA003A08F20036080A162D
:1014E4008A1506240A128A15730883120313CB0083
:1014F4007208CA004A08BA004B08BB00BC01BD010F
:101504003A08C0073B0803110318013E03198B2A4C
:10151400C1073C0803110318013E0319922AC207AC
:101524003D0803110318013E0319992AC307320821
:10153400BA003A08F20037080A168A1506240A1275
:101544008A15730883120313CB007208CA004A0871
:10155400BA004B08BB00BC01BD013A08C0073B08F8
:1015640003110318013E0319B82AC1073C080311EB
:101574000318013E0319BF2AC2073D0803110318CB
:10158400013E0319C62AC3070830BA000310C00D70
:10159400C10DC20DC30DBA0BC82A3208BA003A08ED
:1015A400F20036080A168A1506240A128A157308E8
:1015B40083120313CB007208CA004A08BA004B080E
:1015C400BB00BC01BD013A08C0073B080311031866
:1015D400013E0319EE2AC1073C0803110318013E1A
:1015E4000319F52AC2073D0803110318013E031924
:1015F400FC2AC3073308BA003A08F20038080A166E
:101604008A1506240A128A15730883120313CB0061
:101614007208CA004A08BA004B08BB00BC01BD01ED
:101624003A08C6073B0803110318013E03191B2B94
:10163400C7073C0803110318013E0319222BC807EE
:101644003D0803110318013E0319292BC907340867
:10165400BA003A08F20037080A168A1506240A1254
:101664008A15730883120313CB007208CA004A0850
:10167400BA004B08BB00BC01BD013A08C6073B08D1
:1016840003110318013E0319482BC7073C08031133
:101694000318013E03194F2BC8073D080311031813
:1016A400013E0319562BC9073408BA003A08F20060
:1016B40038080A168A1506240A128A157308831232
:1016C4000313CB007208CA004A08BA004B08BB00D7
:1016D400BC01BD0108300310BA0DBB0DBC0DBD0D1E
:1016E400FF3E031D6D2B3A08C6073B080311031880
:1016F400013E03197E2BC7073C0803110318013E62
:101704000319852BC8073D0803110318013E03196B
:101714008C2BC9074008BA004108BB004208BC0032
:101724004308BD0018300310BD0CBC0CBB0CBA0C34
:10173400FF3E031D952B3A08C6073B080311031807
:10174400013E0319A62BC7073C0803110318013EE9
:101754000319AD2BC8073D0803110318013E0319F3
:10176400B42BC9070830BA000310C00DC10DC20D57
:10177400C30DBA0BB62B45084407BA00BB01BB0D19
:101784003A08823ECA003B080318013EFF3ECB00E4
:10179400E82B0130BA000310C60DC70DC80DC90DE2
:1017A400BA0BCD2BC31FD72BD82BD92B4614013002
:1017B400BA000310C00DC10DC20DC30DBA0BDB2B53
:1017C400FF30CA070318CB0AFF30CB07C81FEB2B27
:1017D400EC2BCB2BC401C31FF02BF12B0D2CFF30B2
:1017E4004005BA00FF304105BB00FF304205BC0094
:1017F4007F304305BD003D083C043B043A04031913
:10180400042C052C082CC401C40A0D2C461C0B2CDA
:101814000C2C0D2C052C44080319112C122C432CD0
:101824000130C607003003180130C7070030031821
:101834000130C807003003180130C907491C232CA4
:10184400242C432C4608BA004708BB004808BC00B7
:101854004908BD000130BE003D0DBD0CBC0CBB0CE5
:10186400BA0CBE0B2E2C3D08C9003C08C8003B082E
:10187400C7003A08C6000130CA070318CB0A003073
:10188400CB074B08803AFF0080307F02031D4C2CAD
:10189400FF304A02031C4F2C502C5B2C7F308312E8
:1018A4000313C9008030C8000030C7000030C600F0
:1018B400902C831203134B08803AFF0080307F0280
:1018C400031D662C01304A020318692C6A2C762CFD
:1018D400003083120313C9000030C8000030C70071
:1018E4000030C600BF01902C831203134A08BA00CB
:1018F4003A08C500FF30C605FF30C7057F30C8056C
:101904000030C905451C872C882C892CC81745082C
:10191400BA0003103A0CBB003B08C9003F08BA00E8
:101924003A08C9044908B5004808B4004708B30098
:101934004608B200080083120313DE00DE1FA32C46
:10194400A42C532EDE09DE0A5E08803A123E031CE4
:10195400AC2CAD2C972D0A30A0000030A1005E08FD
:10196400F400F501F41BF5036430F2000030F300D9
:101974000A168A153E260A128A157308831203135F
:10198400A3007208A2000A168A11D3200A128A152B
:10199400831203132008D00001300310D00DFF3E42
:1019A400031DCF2C0310500D593E84000A168A11D2
:1019B4000A200A128A15D1000A168A110A200A126C
:1019C4008A15D2000A168A110A200A128A15D3002F
:1019D4000A168A110A200A128A15D4005408B5007E
:1019E4005308B4005208B3005108B2006430A00098
:1019F4000030A1005E08A200A301A21BA3030A16E3
:101A04008A11D3200A128A15831203132008D500E1
:101A140001300310D50DFF3E031D0B2D0310550D92
:101A24007D3E84000A168A110A200A128A15D600FD
:101A34000A168A110A200A128A15D7000A168A1170
:101A44000A200A128A15D8000A168A110A200A12D4
:101A54008A15D9005908B9005808B8005708B700C2
:101A64005608B6000A128A153C210A128A158312F6
:101A740003133508DD003408DC003308DB003208CA
:101A8400DA000A30F2000030F3005E08F400F501D9
:101A9400F41BF5030A168A153E260A128A157208E3
:101AA40083120313D00001300310D00DFF3E031D39
:101AB400562D0310500D353E84000A168A110A2053
:101AC4000A128A15D1000A168A110A200A128A15E6
:101AD400D2000A168A110A200A128A15D3000A169D
:101AE4008A110A200A128A15D4005408B500530832
:101AF400B4005208B3005108B2005D08B9005C0894
:101B0400B8005B08B7005A08B6000A128A153C21CF
:101B14000A128A15831203133508CF003408CE0045
:101B24003308CD003208CC00FF2F5E08803A753EA2
:101B3400031C9D2D9E2D262E0A30F2000030F3004A
:101B44005E08F400F501F41BF5030A168A153E2617
:101B54000A128A15720883120313D000013003108D
:101B6400D00DFF3E031DB12D0310500D353E8400F2
:101B74000A168A110A200A128A15D1000A168A1135
:101B84000A200A128A15D2000A168A110A200A1299
:101B94008A15D3000A168A110A200A128A15D4005B
:101BA4005408B5005308B4005208B3005108B200F9
:101BB4000A30A0000030A1005E08A200A301A21B0D
:101BC400A3030A168A11D3200A128A158312031357
:101BD4002008D50001300310D50DFF3E031DED2D67
:101BE4000310550D593E84000A168A110A200A1260
:101BF4008A15D6000A168A110A200A128A15D700F5
:101C04000A168A110A200A128A15D8000A168A119D
:101C14000A200A128A15D9005908B9005808B800D0
:101C24005708B7005608B6000A128A153C210A1252
:101C34008A15831203133508CF003408CE00330805
:101C4400CD003208CC00FF2F5E08D0000130031015
:101C5400D00DFF3E031D292E0310500D353E840088
:101C64000A168A110A200A128A15D1000A168A1144
:101C74000A200A128A15D2000A168A110A200A12A8
:101C84008A15D3000A168A110A200A128A15D4006A
:101C94005408CF005308CE005208CD005108CC00A0
:101CA400FF2F5E08803A123E031C592E5A2E442FF1
:101CB4000A30A0000030A1005E08F400F501F41B16
:101CC400F5036430F2000030F3000A168A153E264C
:101CD4000A128A15730883120313A3007208A20060
:101CE4000A168A11D3200A128A15831203132008B4
:101CF400D00001300310D00DFF3E031D7C2E0310D5
:101D0400500D253E84000A168A110A200A128A15EB
:101D1400D1000A168A110A200A128A15D2000A165C
:101D24008A110A200A128A15D3000A168A110A2077
:101D34000A128A15D4005408B5005308B400520896
:101D4400B3005108B2006430A0000030A1005E0866
:101D5400A200A301A21BA3030A168A11D3200A120C
:101D64008A15831203132008D50001300310D50D02
:101D7400FF3E031DB82E0310550D493E84000A167C
:101D84008A110A200A128A15D6000A168A110A2014
:101D94000A128A15D7000A168A110A200A128A150D
:101DA400D8000A168A110A200A128A15D90059087D
:101DB400B9005808B8005708B7005608B6000A1208
:101DC4008A153C210A128A15831203133508DD0093
:101DD4003408DC003308DB003208DA000A30F20091
:101DE4000030F3005E08F400F501F41BF5030A1655
:101DF4008A153E260A128A15720883120313D0002C
:101E040001300310D00DFF3E031D032F0310500DAE
:101E1400013E84000A168A110A200A128A15D1008A
:101E24000A168A110A200A128A15D2000A168A1181
:101E34000A200A128A15D3000A168A110A200A12E5
:101E44008A15D4005408B5005308B4005208B300EE
:101E54005108B2005D08B9005C08B8005B08B7001F
:101E64005A08B6000A128A153C210A128A158312EE
:101E740003133508CF003408CE003308CD003208F0
:101E8400CC00FF2F5E08803A753E031C4A2F4B2F6F
:101E9400D32F0A30F2000030F3005E08F400F5019D
:101EA400F41BF5030A168A153E260A128A157208CF
:101EB40083120313D00001300310D00DFF3E031D25
:101EC4005E2F0310500D013E84000A168A110A2069
:101ED4000A128A15D1000A168A110A200A128A15D2
:101EE400D2000A168A110A200A128A15D3000A1689
:101EF4008A110A200A128A15D4005408B50053081E
:101F0400B4005208B3005108B2000A30A0000030F7
:101F1400A1005E08A200A301A21BA3030A168A1152
:101F2400D3200A128A15831203132008D500013026
:101F34000310D50DFF3E031D9A2F0310550D253EAA
:101F440084000A168A110A200A128A15D6000A1673
:101F54008A110A200A128A15D7000A168A110A2041
:101F64000A128A15D8000A168A110A200A128A153A
:101F7400D9005908B9005808B8005708B7005608DE
:101F8400B6000A128A153C210A128A158312031319
:101F94003508CF003408CE003308CD003208CC0019
:101FA400FF2F5E08D00001300310D00DFF3E031D4B
:101FB400D62F0310500D013E84000A168A110A2000
:101FC4000A128A15D1000A168A110A200A128A15E1
:101FD400D2000A168A110A200A128A15D3000A1698
:101FE4008A110A200A128A15D4005408CF00530813
:101FF400CE005208CD005108CC000800FF1B0A286F
:1020040083137F1883170008840A0319FF0A080042
:1020140010308A000408840A820700340034003433
:1020240080343F34003400342034413400340034EC
:10203400C8344234003400347A34443400344034F4
:102044001C34463400345034C3344734003424340C
:10205400743449348034963418344B342034BC34CA
:10206400BE344C3428346B346E344E34F934023478
:1020740015345034EC347834AD346034CA34F2342A
:10208400493471340034003480343F34CD34CC349A
:10209400CC343D340A34D73423343C346F341234D2
:1020A40083343A341734B734D1343834AC34C53487
:1020B40027343734BD343734863435349534BF341B
:1020C400D63433347734CC342B3432345F347034F4
:1020D40089343034FF34E634DB342E340834E534C8
:1020E4003C341E3460344234A2340D3401340034A0
:1020F400003400340A3400340034003464340034CE
:1021040000340034E8340334003400341034273409
:1021140000340034A0348634013400344034423472
:102124000F34003480349634983400340034E1346D
:10213400F53405340034CA349A343B344E346834AC
:10214400693465347434203464346F3420343D3459
:10215400203425342E34313466342034003443346E
:02216400003445
:10217200F50083120313081175080A168A15BF2386
:102182000A168A118312031388150B30F400623089
:10219200F300F30BCA28F40BCA28000083120313BE
:1021A2008811080083120313A501A11FD928DA2878
:1021B200E128A009A109A00A0319A10AA501A50AFB
:1021C200A31FE428E528EE28A209A309A20A0319FD
:1021D200A30A0130F9007908A506A601A701200883
:1021E20021040319F528F6282D29A401A40A04299B
:1021F20001300310A00DA10DFF3E031DFA2801308E
:10220200F9007908A407A11F07290829F928013034
:102212000310A60DA70DFF3E031D09292108230265
:10222200031D152920082202031C18291929202917
:102232002008A2022108031CA303A30226140130D2
:102242000310A10CA00CFF3E031D21290130A402A2
:10225200031D2C292D290829250803193129322982
:102262003729A609A709A60A0319A70A2708A10060
:102272002608A000080083120313AC002C080319DF
:10228200432944295829A71F47294829582924099D
:10229200AE002509AF002609B0002709B100AE0A39
:1022A2000319AF0A0319B00A0319B10A60292708F2
:1022B200B1002608B0002508AF002408AE002708A8
:1022C200260425042404031D672968297129003086
:1022D200A7000030A6000030A5000030A400F729B6
:1022E2009630A8002808AD0083290130A8002808EC
:1022F200AD0701300310B10CB00CAF0CAE0CFF3EB9
:10230200031D7B29FE303105031D88298929762981
:10231200A5290130A8002808AD070130AE0700301A
:1023220003180130AF07003003180130B007003046
:1023320003180130B10701300310B10CB00CAF0C1F
:10234200AE0CFF3E031D9D29FF303105031DAA2956
:10235200AB298A29B7290130AD020130A800031048
:10236200AE0DAF0DB00DB10DA80BB029B01BBA293F
:10237200BB29C12902302D020318C029C129AC2969
:102382002D18C429C529CD29FF30AE05FF30AF0570
:102392007F30B005FF30B1050310AD0C2D08A80049
:1023A200A901AA01AB0118300310A80DA90DAA0DAD
:1023B200AB0DFF3E031DD5292808AE042908AF0442
:1023C2002A08B0042B08B1042C080319E929EA29C8
:1023D200EF29A71FED29EE29EF29B1173108A70030
:1023E2003008A6002F08A5002E08A40008007208D5
:1023F20083120313A0007308A1007408A200031043
:10240200210D220DA3002308A9002908031D0A2A71
:102412000B2A142A0030F5000030F4000030F300DB
:102422000030F200B42A7608A0007708A1007808EC
:10243200A2000310210D220DA3002308A8002808E2
:10244200031D242A252A262A0B2AF317FF30F20518
:10245200FF30F3050030F405F717FF30F605FF30C3
:10246200F7050030F8050030A7000030A600003064
:10247200A5000030A4007F30A90298302807A000F0
:102482002008A9021830A0002008A8000130A000EE
:102492000310A40DA50DA60DA70DA00B492A7808BF
:1024A2007402031D5A2A77087302031D5A2A7608FA
:1024B2007202031C5D2A5E2A692A7608F2027708F4
:1024C200031C770FF3027808031C780AF402241421
:1024D20001300310F20DF30DF40DFF3E031D6A2AC5
:1024E2000130A802031D762A772A472AA91F7A2AD1
:1024F2007B2A952A2908803A973E0318812A822A44
:10250200832A0B2A01300310A70CA60CA50CA40CDD
:10251200FF3E031D842A0130A0002008A907031DE5
:10252200932A942A832AAC2A18302902031C9A2A55
:102532009B2AA72A0B2A0130A0000310A40DA50D87
:10254200A60DA70DA00B9E2A0130A9022908031D82
:10255200AB2AAC2A9C2A2708F5002608F400250895
:10256200F3002408F200080083120313DF006E3028
:102572005F02031CBD2ABE2ACB2B3F30B5000030C0
:10258200B4000030B3000030B2006430F800003014
:10259200F9005F08D000D1015008FA005108FB0091
:1025A2000A168A15AC240A168A11780883120313B4
:1025B200D20001300310D20DFF3E031DDB2A0310AF
:1025C200520D7D3E84000A168A110A200A168A11CB
:1025D200D3000A168A110A200A168A11D4000A1692
:1025E2008A110A200A168A11D5000A168A110A20AF
:1025F2000A168A11D6005608B9005508B8005408C0
:10260200B7005308B6000A128A153C210A168A112D
:10261200831203133508DE003408DD003308DC00C2
:102622003208DB000A30F8000030F9005F08D00001
:10263200D1015008F4005108F5006430F200003076
:10264200F3000A128A11BE270A168A117308FB00C8
:102652007208FA000A168A15AC240A168A1178083A
:1026620083120313D20001300310D20DFF3E031D6B
:10267200352B0310520D593E84000A168A110A2086
:102682000A168A11D3000A168A110A200A168A111A
:10269200D4000A168A110A200A168A11D5000A16CF
:1026A2008A110A200A168A11D6005608B500550862
:1026B200B4005408B3005308B2005E08B9005D08C4
:1026C200B8005C08B7005B08B6000A128A153C2104
:1026D2000A168A11831203133508DA003408D90066
:1026E2003308D8003208D7000A30F2000030F30075
:1026F2005F08D000D1015008F4005108F5000A1219
:102702008A11BE270A168A11720883120313D20095
:1027120001300310D20DFF3E031D8A2B0310520D10
:10272200353E84000A168A110A200A168A11D3003D
:102732000A168A110A200A168A11D4000A168A1168
:102742000A200A168A11D5000A168A110A200A16C8
:102752008A11D6005608B5005508B4005408B300D3
:102762005308B2005A08B9005908B8005808B7000F
:102772005708B6000A128A153C210A168A118312DA
:1027820003133508CF003408CE003308CD003208D9
:10279200CC00BF2C0B305F02031CD02BD12B7C2C26
:1027A2003F30B5000030B4000030B3000030B2005A
:1027B2000A30F8000030F9005F08D000D10150085B
:1027C200FA005108FB000A168A15AC240A168A116F
:1027D200780883120313D20001300310D20DFF3E9A
:1027E200031DEE2B0310520D593E84000A168A1166
:1027F2000A200A168A11D3000A168A110A200A161A
:102802008A11D4000A168A110A200A168A11D500E2
:102812000A168A110A200A168A11D6005608B90029
:102822005508B8005408B7005308B6000A128A15B2
:102832003C210A168A11831203133508DE0034087C
:10284200DD003308DC003208DB000A30F200003021
:10285200F3005F08D000D1015008F4005108F500E0
:102862000A128A11BE270A168A11720883120313EA
:10287200D20001300310D20DFF3E031D3B2C03108A
:10288200520D353E84000A168A110A200A168A1150
:10289200D3000A168A110A200A168A11D4000A16CF
:1028A2008A110A200A168A11D5000A168A110A20EC
:1028B2000A168A11D6005608B5005508B400540805
:1028C200B3005308B2005E08B9005D08B8005C08A6
:1028D200B7005B08B6000A128A153C210A168A1153
:1028E200831203133508CF003408CE003308CD001D
:1028F2003208CC00BF2C3F30B5000030B4000030AD
:10290200B3000030B2005F08D00001300310D00DD8
:10291200FF3E031D872C0310500D353E84000A161E
:102922008A110A200A168A11D1000A168A110A206F
:102932000A168A11D2000A168A110A200A168A1168
:10294200D3000A168A110A200A168A11D4005408E2
:10295200B9005308B8005208B7005108B6000A126D
:102962008A153C210A168A11831203133508CF00F7
:102972003408CE003308CD003208CC0008008312A0
:10298200031363088039E800680883160313A00064
:10299200831203136308E8006807E90069088316D5
:1029A2000313A20083120313E21FD82CD92CDC2CB0
:1029B2008316031322148316031322080319E22C2D
:1029C200E32CF62C220A031DE72CE82CF22C003013
:1029D20083120313E3000030E2000030E100003014
:1029E200E0008312E217E301002D0030831203138B
:1029F200E3000030E2000030E1000030E000670850
:102A02008039E800680883160313A1002108200614
:102A120003190C2D0D2D0E2D201783120313670899
:102A2200E8006807E900690883160313A10083120E
:102A32000313E61F1D2D1E2D212D831603132114B2
:102A42008316031321080319272D282D3B2D210A54
:102A5200031D2C2D2D2D372D003083120313E7007B
:102A62000030E6000030E5000030E4008312E61793
:102A7200E701452D003083120313E7000030E60022
:102A82000030E5000030E40083160313220821021F
:102A920003184C2D4D2DC32D201F502D512D592D76
:102AA200803083120313E800680883160313A0061C
:102AB200220883120313E800680883160313A30095
:102AC200210883120313E800680883160313A20087
:102AD200230883120313E800680883160313A10076
:102AE200831203136008E800680883160313A30027
:102AF200831203136408E8006808E00083160313D6
:102B0200230883120313E8006808E4006108E80060
:102B1200680883160313A300831203136508E800F1
:102B22006808E10083160313230883120313E800E5
:102B32006808E5006208E800680883160313A3002A
:102B4200831203136608E8006808E2008316031381
:102B5200230883120313E8006808E6006308E8000C
:102B6200680883160313A300831203136708E8009F
:102B72006808E30083160313230883120313E80093
:102B82006808E70083160313A301210883120313C5
:102B9200E800E9016908EB00831603132208831297
:102BA20003136802EA00031CEB036B08803AFF0080
:102BB20080307F02031DDF2D1A306A02031CE22DD2
:102BC200E32D352E8312031363086204610460044B
:102BD200031DEC2DEE2D0130EF2D0030E8006808CA
:102BE20083160313A300003083120313E3000030A3
:102BF200E2000030E1000030E000831603132108F8
:102C020083120313E800680883160313A2003D2E03
:102C1200231C0C2E0D2E1A2E230883120313E800F8
:102C22000310680C0138E900690883160313A30036
:102C32001C2E0310A30C83120313601C212E222EC0
:102C4200252E83160313A31701308312E800630DA8
:102C5200E30CE20CE10CE00CE80B282E0130E8005A
:102C6200680883160313A20783160313210822029E
:102C7200031C3C2E3D2E092E201B402E412E9D2E44
:102C82002208031D452E462E512E003083120313B7
:102C9200E3000030E2000030E1000030E000FF2FEE
:102CA200831203136408E007650803110318013E49
:102CB20003195C2EE107660803110318013E03198C
:102CC200632EE207670803110318013E03196A2EF7
:102CD200E307631C6D2E6E2E632F83160313231CD2
:102CE200732E742E812E230883120313E80003101F
:102CF200680C0138E900690883160313A300832EC8
:102D02000310A30C83120313601C882E892E8C2EB1
:102D120083160313A31701308312E800630DE30C3B
:102D2200E20CE10CE00CE80B8F2E0130E8006808A1
:102D320083160313A207632F831203136308803AD7
:102D4200FF006708803A7F02031DB12E6608620207
:102D5200031DB12E65086102031DB12E64086002D5
:102D62000318B42EB52E112FFF30E800FF30E90012
:102D7200FF30EA00FF30EB006408EC006508ED006C
:102D82006608EE006708EF006008EC026108031CA9
:102D9200610FCC2ECD2EED026208031C620FD22EE3
:102DA200D32EEE026308031C630FD82ED92EEF0236
:102DB2006C08E8076D0803186D0FE02EE12EE90795
:102DC2006E0803186E0FE62EE72EEA076F08031847
:102DD2006F0AEB076B08E3006A08E2006908E1008A
:102DE2006808E0008030E800680883160313A00634
:102DF200A309A30A2308031DFF2E002F1F2F013052
:102E020083120313E007003003180130E10700309A
:102E120003180130E207003003180130E3071F2FC7
:102E22006408E0026508031C650FE1026608031CE2
:102E3200660FE2026708031C670FE302831263084E
:102E4200620461046004031D272F282F5E2F83165E
:102E520003132308031D2E2F2F2F5E2F0030831202
:102E62000313E3000030E2000030E1000030E00034
:102E7200FF2F0130E8000310E00DE10DE20DE30D3C
:102E8200E80B3C2F83160313A31F482F492F4C2F07
:102E920083120313601483160313231C512F522F22
:102EA200552F0314A30D572F0310A30D2208031946
:102EB2005B2F5C2F5E2F0130A2028312E21F622F72
:102EC200632F3A2F83160313A101A31F692F6A2FC1
:102ED2007C2F23087F3903196F2F702F752F8316CC
:102EE2000313A101A10A7C2F83120313601C7A2F02
:102EF2007B2F7C2F702F8316031321080319822F37
:102F0200832FBF2F013083120313E0070030031811
:102F12000130E107003003180130E20700300318E6
:102F22000130E307631C962F972FBF2F6008E8003C
:102F32006108E9006208EA006308EB000130EC0076
:102F42006B0DEB0CEA0CE90CE80CEC0BA12F6B08F7
:102F5200E3006A08E2006908E1006808E0008316FD
:102F62000313220A0319B62FB72FBF2F0130831282
:102F72000313E800680883160313A20783160313DA
:102F8200220A0319C52FC62FCB2F2208031DCA2FD1
:102F9200CB2FDD2F003083120313E3000030E20059
:102FA2000030E1000030E000831603132208031D05
:102FB200DB2FDC2FDD2FA001221CE02FE12FE52FDC
:102FC20083120313E217EB2F7F3083120313E800FF
:102FD2006808E20583160313220883120313E8002C
:102FE2000310680CE9006908E30083160313A01FAD
:0E2FF200FB2FFC2FFF2F83120313E3170800A1
:1036B80075087404730472040319632B642B662B56
:1036C8008030F506080000300A168A11B9200A165B
:1036D8008A1501300A168A11B9200A168A150800B7
:1036E8008B1C772B782B7F2B013083160313E70075
:1036F8000030E8008B1071088A00700E8300FE0EFF
:103708007E0E0900831203131F151F198C2B8D2B96
:10371800892B1E08F500831603131E08F40075088C
:10372800F3007408F2000800F300F2013A30730263
:1037380003189F2BA02BA82B30307302031CA52B3A
:10374800A62BA82BF201F20A720C080083160313A9
:103758001F13831203139F131F179F121F129F110A
:10376800831603139F179F151F159F141F1083128D
:1037780003131F140800F200721CC32BC42BC82BA0
:10378800831203130816CB2B831203130812F21C9F
:10379800CE2BCF2BD12B8816D22B8812721DD52B6E
:1037A800D62BD82B0817D92B0813F21DDC2BDD2BB1
:1037B800DF2B8817E02B88130800F601F701721C2D
:1037C800E62BE72BED2B7408F6070318F70A7508A4
:1037D800F70701300310F40DF50DFF3E031DEE2B26
:1037E80001300310F30CF20CFF3E031DF52B720899
:1037F8007304031D002C012CE32B7708F3007608D3
:10380800F2000800FA00F601F7017208F400F50169
:103818007408F8007508F9007A1C132C142C1A2C5B
:103828007808F6070318F70A7908F7070130031034
:10383800F80DF90DFF3E031D1B2C0310FA0C7A0836
:10384800031D272C282C102C7708F3007608F2008B
:103858000800F60076080F39F3007308F4007608BC
:10386800F039F3007308F50083120313081575087F
:10387800F30004300310F30CFF3E031D3E2C7308C5
:103888000A168A15BF230A168A1583120313881588
:103898001A30F300F30B4E2C000083120313881127
:1038A80074080A168A15BF230A168A158312031389
:1038B80088151A30F300F30B5F2C000083120313F2
:1038C8008811080083120313A001A1018F2C20087E
:1038D8007707FA007808F9000318F90AA01F752C71
:1038E800F9037908FB007B0883120313FF007A08A9
:1038F80084000A168A1100200A168A150A168A15E3
:103908002D240A168A15013083120313A007031801
:10391800A10A0030A10720087707FA007808F90003
:103928000318F90AA01F992CF9037908FB007B08F2
:1039380083120313FF007A0884000A168A110020F4
:103948000A168A15003A031DAA2CAB2C6B2C08000A
:1039580083120313A101A201780879040319B52C75
:10396800B62CED2CA301A30AC42C01300310F80DCA
:10397800F90DFF3E031DBA2C0130A0002008A30753
:10398800F91FC72CC82CB92C01300310A10DA20DAA
:10399800FF3E031DC92C79087B02031DD52C78082E
:1039A8007A02031CD82CD92CE02C7808FA02790862
:1039B800031CFB03FB02211401300310F90CF80C63
:1039C800FF3E031DE12C0130A302031DEC2CED2C5E
:1039D800C82C2208F9002108F800080000307205F8
:1039E80083120313A00000307305A1008030740512
:1039F800A2007F307505A3002308220421042004B7
:103A0800031D072D082D102D0030F5000030F4009F
:103A18000030F3000030F20000307605A0000030DE
:103A28007705A10080307805A2007F307905A300D2
:103A38002308220421042004031D232D242D2C2DCA
:103A48000030F9000030F8000030F7000030F600D0
:103A580079087506031D3A2D78087406031D3A2D5A
:103A680077087306031D3A2D7608720603193D2D53
:103A78003E2D402D0310412D03140800803083167D
:103A88000313A7062B0883120313E30083160313FB
:103A98002A0883120313E2008316031329088312EA
:103AA8000313E10083160313280883120313E000AD
:103AB80083160313270883120313E70083160313DF
:103AC800260883120313E6008316031325088312BE
:103AD8000313E50083160313240883120313E40079
:103AE8000A168A11C0240A168A158312031363085A
:103AF80083160313A70083120313620883160313A4
:103B0800A60083120313610883160313A50083120A
:103B18000313600883160313A400080075087404CF
:103B2800730472040319992D9A2DDD2DFB01FB0AEC
:103B3800AA2D0130FA000310F20DF30DF40DF50D66
:103B4800FA0B9F2D0130FA007A08FB07F51FAD2DFF
:103B5800AE2D9D2D75087902031DBC2D74087802C1
:103B6800031DBC2D73087702031DBC2D7208760255
:103B7800031CBF2DC02DCE2D7208F6027308031C3E
:103B8800730FF7027408031C740FF8027508031CFE
:103B9800750FF90201300310F50CF40CF30CF20C5C
:103BA800FF3E031DCF2D0130FB02031DDC2DDD2D53
:103BB800AE2D7908F5007808F4007708F300760848
:103BC800F200080083120313A0002003031DED2D4B
:103BD800EE2D132E76087F3EF7007708A300230802
:103BE800F70004300310F70CFF3E031DF62D77088D
:103BF800F8007808A10023080F39F7007708A20019
:103C080021080A168A11B9200A168A158312031385
:103C180022080A168A11B9200A168A153D2E023082
:103C28002006031D182E192E3D2E7608BF3EF700DC
:103C38007708A3002308F70004300310F70CFF3EB1
:103C4800031D212E7708F8007808A10023080F39F2
:103C5800F7007708A20021080A168A11B9200A1667
:103C68008A158312031322080A168A11B9200A1624
:103C78008A150800F801F51F422E432E4A2EF40932
:103C8800F509F40A0319F50AF801F80AF31F4D2E8D
:103C98004E2E532EF209F309F20A0319F30A720899
:103CA80073040319582E592E882EF701F70A672E28
:103CB80001300310F20DF30DFF3E031D5D2E0130A0
:103CC800F6007608F707F31F6A2E6B2E5C2E730832
:103CD8007502031D712E72087402031C742E752E52
:103CE8007B2E7208F4027308031CF503F5020130F9
:103CF8000310F30CF20CFF3E031D7C2E0130F7027B
:103D0800031D872E882E6B2E780803198C2E8D2E76
:103D1800922EF409F509F40A0319F50A7508F30057
:103D28007408F200080000300A168A15BF230A1624
:103D38008A153430F700F130F600F60BA12EF70B98
:103D4800A12EA62E03300A168A11B9200A168A1542
:103D58000D30F700FB30F600F60BB02EF70BB02E47
:103D6800B52E03300A168A11B9200A168A151D3095
:103D7800F7009130F600F60BBF2EF70BBF2E03307D
:103D88000A168A11B9200A168A1502300A168A11EB
:103D9800B9200A168A1502300A168A11B9200A169D
:103DA8008A1508300A168A11B9200A168A150030B1
:103DB8000A168A11B9200A168A150C300A168A11B1
:103DC800B9200A168A1500300A168A11B9200A166F
:103DD8008A1506300A168A11B9200A168A150800AB
:103DE800003083120313A3000030A2000030A100AA
:103DF8000030A00075087404730472040319052FB9
:103E0800062F532FA401A40A162F0130FA0003101D
:103E1800F20DF30DF40DF50DFA0B0B2F0130FA002E
:103E28007A08A407F51F192F1A2F092F0130FA0055
:103E38000310A00DA10DA20DA30DFA0B1C2F7508E0
:103E48007902031D312F74087802031D312F73087E
:103E58007702031D312F72087602031C342F352F89
:103E6800442F7208F6027308031C730FF7027408D4
:103E7800031C740FF8027508031C750FF90220144F
:103E880001300310F50CF40CF30CF20CFF3E031D8B
:103E9800452F0130A402031D522F532F1A2F230838
:103EA800F5002208F4002108F3002008F2000800B9
:103EB8000030720583120313A00000307305A100BF
:103EC80080307405A2007F307505A3002308220402
:103ED80021042004031D712F722F7A2F0030F50062
:103EE8000030F4000030F3000030F20000307605B6
:103EF800A00000307705A10080307805A2007F304F
:103F08007905A3002308220421042004031D8D2F12
:103F18008E2F962F0030F9000030F8000030F7009F
:103F28000030F600F51F992F9A2FBE2F0030A00001
:103F38000030A1000030A2008030A3007208A00267
:103F48007308031C730FA92FAA2FA1027408031C5E
:103F5800740FAF2FB02FA2027508031C750FB52F71
:103F6800B62FA3022308F5002208F4002108F30065
:103F78002008F200F91FC12FC22FE62F0030A00041
:103F88000030A1000030A2008030A3007608A00213
:103F98007708031C770FD12FD22FA1027808031CB2
:103FA800780FD72FD82FA2027908031C790FDD2F9D
:103FB800DE2FA3022308F9002208F8002108F700E1
:103FC8002008F6008030F5068030F9067908750279
:103FD800031DF82F78087402031DF82F7708730261
:103FE800031DF82F760872020318FB2FFC2FFE2FF3
:083FF8000310FF2F0314080061
:02400E007A3FF7
:00000001FF
