:020000040000FA
:060000000A128A110C280F
:10000800FE00030EF0000A08F1000A128A15B72F45
:100018000A128A110F280A128A1546270A128A110B
:10002800E7000A128A1547270A128A11E800E10137
:10003800E201E301E401E501E60183010A128A1104
:10004800702C8312031329088039AE002E08B300E0
:100058002908AE002E07AF002F08B900A81F3528C1
:10006800362837283914390803193B283C284B28E7
:10007800390A031D4028412849280030A9000030CA
:10008800A8000030A7000030A600A81753280030A9
:10009800A9000030A8000030A7000030A6002D08F5
:1000A8008039AE002E08B3062D08AE002E07AF002B
:1000B8002F08B800AC1F6128622863283814380854
:1000C8000319672868287728380A031D6C286D28C3
:1000D80075280030AD000030AC000030AB000030B7
:1000E800AA00AC177F280030AD000030AC0000300B
:1000F800AB000030AA00380803198328842889280F
:100108003908031D8828892892280030A900003062
:10011800A8000030A7000030A600852B2608AE00F6
:100128002E08F2002C080A128A15D9270A128A11F9
:10013800730883120313BF007208BE003E08AE00A6
:10014800AF01B001B1013108B7003008B6002F087F
:10015800B5002E08B4003F08AE00AF01B001B101F0
:100168003108BD003008BC002F08BB002E08BA00BB
:100178002708AE002E08F2002B080A128A15D92784
:100188000A128A11730883120313BF007208BE0093
:100198003E08AE00AF01B001B1012E08B4072F0828
:1001A80003110318013E0319DA28B50730080311B3
:1001B8000318013E0319E128B60731080311031893
:1001C800013E0319E828B7073F08AE00AF01B001A8
:1001D800B1012E08BA072F0803110318013E0319AD
:1001E800F628BB07300803110318013E0319FD2840
:1001F800BC07310803110318013E03190429BD0780
:100208002808AE002E08F2002A080A128A15D927F3
:100218000A128A11730883120313BF007208BE0002
:100228003E08AE00AF01B001B1012E08B4072F0897
:1002380003110318013E03192229B50730080311D9
:100248000318013E03192929B607310803110318B9
:10025800013E03193029B7073F08AE00AF01B001CE
:10026800B1012E08BA072F0803110318013E03191C
:100278003E29BB07300803110318013E031945291D
:10028800BC07310803110318013E03194C29BD07A7
:100298000830AE000310B40DB50DB60DB70DAE0B9A
:1002A8004E292708AE002E08F2002A080A128A15DD
:1002B800D9270A128A11730883120313BF00720820
:1002C800BE003E08AE003F08AF00B001B1012E08E5
:1002D800B4072F0803110318013E03197429B50741
:1002E800300803110318013E03197B29B6073108AA
:1002F80003110318013E03198229B7072608AE0027
:100308002E08F2002B080A128A15D9270A128A1118
:10031800730883120313BF007208BE003E08AE00C4
:100328003F08AF00B001B1012E08B4072F08031130
:100338000318013E0319A129B50730080311031852
:10034800013E0319A829B607310803110318013E15
:100358000319AF29B7070830AE000310B40DB50D67
:10036800B60DB70DAE0BB1292608AE002E08F20067
:100378002A080A128A15D9270A128A1173088312C1
:100388000313BF007208BE003E08AE003F08AF006E
:10039800B001B1012E08B4072F0803110318013E5C
:1003A8000319D729B507300803110318013E0319AB
:1003B800DE29B607310803110318013E0319E529A0
:1003C800B7072708AE002E08F2002C080A128A1573
:1003D800D9270A128A11730883120313BF007208FF
:1003E800BE003E08AE003F08AF00B001B1012E08C4
:1003F800BA072F0803110318013E0319042ABB0783
:10040800300803110318013E03190B2ABC073108F1
:1004180003110318013E0319122ABD072808AE006C
:100428002E08F2002B080A128A15D9270A128A11F7
:10043800730883120313BF007208BE003E08AE00A3
:100448003F08AF00B001B1012E08BA072F08031109
:100458000318013E0319312ABB073008031103189A
:10046800013E0319382ABC07310803110318013E5D
:1004780003193F2ABD072808AE002E08F2002C08F1
:100488000A128A15D9270A128A11730883120313CC
:10049800BF007208BE003E08AE003F08AF00B001C2
:1004A800B10108300310AE0DAF0DB00DB10DFF3E18
:1004B800031D562A2E08BA072F0803110318013EF8
:1004C8000319672ABB07300803110318013E0319F3
:1004D8006E2ABC07310803110318013E0319752A57
:1004E800BD073408AE003508AF003608B00037083D
:1004F800B10018300310B10CB00CAF0CAE0CFF3EBD
:10050800031D7E2A2E08BA072F0803110318013E7F
:1005180003198F2ABB07300803110318013E03197A
:10052800962ABC07310803110318013E03199D2AB6
:10053800BD070830AE000310B40DB50DB60DB70DEC
:10054800AE0B9F2A39083807AE00AF01AF0D2E0851
:10055800823EBE002F080318013EFF3EBF00D12A8D
:100568000130AE000310BA0DBB0DBC0DBD0DAE0BB6
:10057800B62AB71FC02AC12AC22A3A140130AE00CF
:100588000310B40DB50DB60DB70DAE0BC42AFF3070
:10059800BE070318BF0AFF30BF07BC1FD42AD52ADD
:1005A800B42AB801B71FD92ADA2AF62AFF30340547
:1005B800AE00FF303505AF00FF303605B0007F30A4
:1005C8003705B100310830042F042E040319ED2A31
:1005D800EE2AF12AB801B80AF62A3A1CF42AF52AB2
:1005E800F62AEE2A38080319FA2AFB2A2C2B01309E
:1005F800BA07003003180130BB0700300318013078
:10060800BC07003003180130BD073D1C0C2B0D2B17
:100618002C2B3A08AE003B08AF003C08B0003D0860
:10062800B1000130B200310DB10CB00CAF0CAE0C02
:10063800B20B172B3108BD003008BC002F08BB00D7
:100648002E08BA000130BE070318BF0A0030BF07E2
:100658003F08803AFF0080307F02031D352BFF30B2
:100668003E02031C382B392B442B7F308312031393
:10067800BD008030BC000030BB000030BA00792BD0
:10068800831203133F08803AFF0080307F02031D66
:100698004F2B01303E020318522B532B5F2B003097
:1006A80083120313BD000030BC000030BB000030D3
:1006B800BA00B301792B831203133E08AE002E084B
:1006C800B900FF30BA05FF30BB057F30BC050030EC
:1006D800BD05391C702B712B722BBC173908AE0065
:1006E80003102E0CAF002F08BD003308AE002E08F3
:1006F800BD043D08A9003C08A8003B08A7003A082B
:10070800A600080083120313AF002530A7002708AE
:10071800AA00592C253030060319932B942BA02BB3
:100728003008A7002F0884002708831380000130B1
:10073800A7002708AF07592CAB010130A407FF30E9
:10074800240784000A128A1500200A128A11B000B0
:10075800A700A8012808003A0319B32B592C270829
:10076800003A03196B2C643A0319BE2B0D3A03198E
:10077800BE2B592C2A08840083130008AD00840A74
:100788000008AE000230A7002708AA07AE1FCD2B2D
:10079800CE2BD72B0330A7002708AB04AD09AE0931
:1007A800AD0A0319AE0AB001B00A3008A70027073E
:1007B800013E84000A128A1500200A128A11A80034
:1007C8000A128A1500200A128A11A90029082E0285
:1007D800031DF02B28082D020318F32BF42BF52BFF
:1007E800FF2B0130A7002708B00705303006031D8E
:1007F800FE2BFF2BD92B2B0803390319042C052CAE
:10080800102C2D30A7002F088400270883138000A0
:100818000130A7002708AF073008A7002708AC0059
:10082800502C0A30A0000030A1002C08A700270790
:10083800013E84000A128A1500200A128A11F20069
:100848000A128A1500200A128A11F3002E08F500F0
:100858002D08F4000A128A1127270A128A11730830
:1008680083120313A3007208A2000A128A116B27CD
:100878000A128A11831203132008303EA8002808A0
:10088800B0003008A7002F088400270883138000D1
:100898000130A7002708AF07FF30A7002708AC07DB
:1008A8002C0A031D582C592C152C0130A407FF3095
:1008B800240784000A128A1500200A128A11A70048
:1008C8002708B0003008031D6A2C6B2C8E2B2F08CC
:1008D80084008313800108000A128A1567270A1208
:1008E8008A1183160313051488010A128A117226C5
:1008F8000A128A11831603130614081083120313AD
:1009080008108B178316031301170B168B150A1281
:100918008A1555270A128A11730883120313E600F1
:100928007208E5006508F2006608F300F401F501B5
:1009380000300A128A113A250A128A1175088312A0
:100948000313AD007408AC007308AB007208AA006A
:100958004030A9009C30A8006730A7001A30A600D4
:100968000A128A1125200A128A11831203132908F0
:10097800C3002808C2002708C1002608C0000A12C0
:100988008A11F6250A128A11831203134108E2001C
:100998004008E1000A30F2000030F3006208F50078
:1009A8006108F4000A128A1127270A128A117308AB
:1009B80083120313E4007208E3000A128A15482719
:1009C8000A128A110B3083120313CB004B08A400C0
:1009D8006808A6006708A5004D300A128A11862308
:1009E8000A128A11F601F60A01300A128A11CF2674
:1009F8000A128A114D300A128A1596270A128A118C
:100A08000D3083120313CC00FB30CB00CB0B0A2D27
:100A1800CC0B0A2D163083120313CB004B08A4000D
:100A28006408A6006308A5004D300A128A118623BF
:100A38000A128A11F601F60A02300A128A11CF2622
:100A48000A128A114D300A128A1596270A128A113B
:100A58000D3083120313CC00FB30CB00CB0B322DAF
:100A6800CC0B322D8B2C0A128A110C2883120313FB
:100A7800A00020080319412D422D562DF51F452DA4
:100A8800462D562D7209A2007309A3007409A4000B
:100A98007509A500A20A0319A30A0319A40A0319D0
:100AA800A50A5E2D7508A5007408A4007308A300A4
:100AB8007208A2007508740473047204031D652D7E
:100AC800662D6F2D0030F5000030F4000030F30083
:100AD8000030F200F52D9630F6007608A100812D41
:100AE8000130F6007608A10701300310A50CA40C0C
:100AF800A30CA20CFF3E031D792DFE302505031D16
:100B0800862D872D742DA32D0130F6007608A107B8
:100B18000130A207003003180130A3070030031882
:100B28000130A407003003180130A5070130031075
:100B3800A50CA40CA30CA20CFF3E031D9B2DFF309B
:100B48002505031DA82DA92D882DB52D0130A1023D
:100B58000130F6000310A20DA30DA40DA50DF60B90
:100B6800AE2DA41BB82DB92DBF2D023021020318BC
:100B7800BE2DBF2DAA2D2118C22DC32DCB2DFF3080
:100B8800A205FF30A3057F30A405FF30A50503109B
:100B9800A10C2108F600F701F801F901183003103B
:100BA800F60DF70DF80DF90DFF3E031DD32D760850
:100BB800A2047708A3047808A4047908A5042008E7
:100BC8000319E72DE82DED2DF51FEB2DEC2DED2D5F
:100BD800A5172508F5002408F4002308F3002208C7
:100BE800F2000800031083120313420D430DC400E2
:100BF8004408CA004A08031D022E032E0C2E00309A
:100C0800C3000030C2000030C1000030C000712EA7
:100C18004008C4004108C5004208C6004308C70090
:100C28001F300310C70CC60CC50CC40CFF3E031DB7
:100C3800152E4408C8004808C900C217FF30C0056F
:100C4800FF30C105FF30C2050030C3059630CA0227
:100C5800CA1F2F2E302E4A2E4A08803A973E031874
:100C6800362E372E382E032E01300310C30CC20C3B
:100C7800C10CC00CFF3E031D392E0130C4004408CE
:100C8800CA07031D482E492E382E612E20304A02ED
:100C9800031C4F2E502E5C2E032E0130C40003106F
:100CA800C00DC10DC20DC30DC40B532E0130CA02B5
:100CB8004A08031D602E612E512E49080319652E1E
:100CC800662E712EC009C109C209C309C00A0319D9
:100CD800C10A0319C20A0319C30A080000300A121C
:100CE8008A11DE270A128A111A30F700F830F60046
:100CF800F60B7C2EF70B7C2E000003300A128A15A7
:100D08007C270A128A110730F7007D30F600F60BAF
:100D18008B2EF70B8B2E03300A128A157C270A12AA
:100D28008A110F30F7004730F600F60B992EF70BB3
:100D3800992E9E2E03300A128A157C270A128A11D0
:100D480002300A128A157C270A128A1102300A1206
:100D58008A157C270A128A1108300A128A157C27FC
:100D68000A128A1100300A128A157C270A128A117F
:100D78000C300A128A157C270A128A1100300A12CE
:100D88008A157C270A128A1106300A128A157C27CE
:100D98000A128A11080083120313A0002003031DFE
:100DA800D62ED72EFC2E76087F3EF7007708A300B4
:100DB8002308F70004300310F70CFF3E031DDF2E55
:100DC8007708F8007808A10023080F39F70077089A
:100DD800A20021080A128A157C270A128A11831296
:100DE800031322080A128A157C270A128A11262F51
:100DF80002302006031D012F022F262F7608BF3E42
:100E0800F7007708A3002308F70004300310F70C55
:100E1800FF3E031D0A2F7708F8007808A100230871
:100E28000F39F7007708A20021080A128A157C27D3
:100E38000A128A118312031322080A128A157C27C0
:100E48000A128A110800F701F801720873040319DD
:100E58002E2F2F2F662FF901F90A3D2F013003108D
:100E6800F20DF30DFF3E031D332F0130F600760817
:100E7800F907F31F402F412F322F01300310F70DD0
:100E8800F80DFF3E031D422F73087502031D4E2FF8
:100E980072087402031C512F522F592F7208F40242
:100EA8007308031CF503F502771401300310F30CE3
:100EB800F20CFF3E031D5A2F0130F902031D652F66
:100EC800662F412F7808F3007708F2000800831294
:100ED8000313200821040319722F732FA22FFB017B
:100EE800FB0A812F01300310A00DA10DFF3E031D49
:100EF800772F0130FA007A08FB07A11F842F852F6E
:100F0800762F21082302031D8B2F20082202031CA1
:100F18008E2F8F2F952F2008A2022108031CA303D0
:100F2800A30201300310A10CA00CFF3E031D962F55
:100F38000130FB02031DA12FA22F852F2308A1003A
:100F48002208A0000800F60076080F39F30073089D
:100F5800F4007608F039F3007308F50083120313E0
:100F680008157508F30004300310F30CFF3E031D49
:100F7800B82F73080A128A11DE270A128A118312FF
:100F8800031388150D30F300F30BC82F83120313D6
:100F9800881174080A128A11DE270A128A1183122C
:100FA800031388150D30F300F30BD82F83120313A6
:100FB80088110800F200721CE22FE32FE72F83123A
:100FC80003130816EA2F831203130812F21CED2FDD
:100FD800EE2FF02F8816F12F8812721DF42FF52F9F
:100FE800F72F0817F82F0813F21DFB2FFC2FFE2FE1
:100FF8008817FF2F8813080008308A000408840A1D
:1010080082070034013400340A3400346434003474
:10101800E8340334103427345334653474342034BA
:1010280020343D34203425346434203400345234A0
:10103800653461346C3420343D34203425346434D0
:04104800203400341C
:101E8C002534003400300A128A157C270A128A1570
:101E9C0001300A128A157C270A128A15080083124F
:101EAC0003131F151F195B2F5C2F582F1E08F500ED
:101EBC00831603131E08F4007508F3007408F2006F
:101ECC000800831603131F13831203139F131F178A
:101EDC009F121F129F11831603139F179F151F1517
:101EEC009F141F10831203131F140800F500831294
:101EFC000313081175080A128A11DE270A128A15B3
:101F0C008312031388150630F4003030F300F30B02
:101F1C008D2FF40B8D2F00008312031388110800F2
:101F2C00FA00F801F901AB2F78087A07F700770867
:101F3C00840000080A128A11A7270A128A15013098
:101F4C00F8070318F90A0030F90778087A07F70040
:101F5C007708840083130008031DB52FB62F9A2F22
:101F6C0008000B1CBA2FBB2FD22F83120313061E93
:101F7C00C02FC12FC72F0130E7070318E80A003024
:101F8C00E807861ECA2FCB2FD12F0130E702003075
:101F9C00031CE803E8020B1071088A00700E830022
:101FAC00FE0E7E0E0900FA00F601F7017208F4002D
:101FBC00F5017408F8007508F9007A1CE62FE72F74
:101FCC00ED2F7808F6070318F70A7908F7070130A0
:101FDC000310F80DF90DFF3E031DEE2F0310FA0C44
:101FEC007A08031DFA2FFB2FE32F7708F3007608EE
:041FFC00F2000800E7
:02400E00713F00
:00000001FF
