:020000040000FA
:060000000A128A110C280F
:10000800FE00030EF5000A08F6000A128A11712F85
:100018000A128A110F288313B030FD000730FE0042
:10002800F430FF00A83084000A128A1514260A1238
:100038008A110A128A11FC270A128A11EE000A1282
:100048008A11FD270A128A11EF0083160313A001F3
:10005800A101A201A301A401A501A601A701831280
:100068000313E801E901EA01EB01EC01ED01F701F5
:10007800F801F901FA01FB01FC0183010A128A1156
:10008800A62B8312031331088039B6003608BB004B
:100098003108B6003607B7003708C100B01F552829
:1000A800562857284114410803195B285C286B28F7
:1000B800410A031D6028612869280030B10000301A
:1000C800B0000030AF000030AE00B0177328003029
:1000D800B1000030B0000030AF000030AE0035088D
:1000E8008039B6003608BB063508B6003607B700B3
:1000F8003708C000B41F812882288328401440088C
:100108000319872888289728400A031D8C288D28DA
:1001180095280030B5000030B4000030B30000303E
:10012800B200B4179F280030B5000030B40000308A
:10013800B3000030B20040080319A328A428A92856
:100148004108031DA828A928B2280030B1000030B2
:10015800B0000030AF000030AE00A52B2E08B6006E
:100168003608A00034080A128A11CB270A128A110D
:10017800831203132108C7002008C6004608B600EA
:10018800B701B801B9013908BF003808BE003708FF
:10019800BD003608BC004708B600B701B801B90170
:1001A8003908C5003808C4003708C3003608C2003B
:1001B8002F08B6003608A00033080A128A11CB2788
:1001C8000A128A11831203132108C7002008C600E7
:1001D8004608B600B701B801B9013608BC073708A8
:1001E80003110318013E0319FA28BD073808031143
:1001F8000318013E03190129BE0739080311031822
:10020800013E03190829BF074708B600B701B8011E
:10021800B9013608C207370803110318013E03194C
:100228001629C307380803110318013E03191D29AD
:10023800C407390803110318013E03192429C50707
:100248003008B6003608A00032080A128A11CB27F7
:100258000A128A11831203132108C7002008C60056
:100268004608B600B701B801B9013608BC07370817
:1002780003110318013E03194229BD073808031169
:100288000318013E03194929BE0739080311031849
:10029800013E03195029BF074708B600B701B80146
:1002A800B9013608C207370803110318013E0319BC
:1002B8005E29C307380803110318013E031965298D
:1002C800C407390803110318013E03196C29C5072F
:1002D8000830B6000310BC0DBD0DBE0DBF0DB60B2A
:1002E8006E292F08B6003608A00032080A128A11B3
:1002F800CB270A128A11831203132108C70020088A
:10030800C6004608B6004708B700B801B901360864
:10031800BC07370803110318013E03199429BD07C8
:10032800380803110318013E03199B29BE07390831
:1003380003110318013E0319A229BF072E08B600AE
:100348003608A00033080A128A11CB270A128A112C
:10035800831203132108C7002008C6004608B60008
:100368004708B700B801B9013608BC0737080311B8
:100378000318013E0319C129BD07380803110318E2
:10038800013E0319C829BE07390803110318013EA5
:100398000319CF29BF070830B6000310BC0DBD0DE7
:1003A800BE0DBF0DB60BD1292E08B6003608A00029
:1003B80032080A128A11CB270A128A1183120313F0
:1003C8002108C7002008C6004608B6004708B7003D
:1003D800B801B9013608BC07370803110318013EF4
:1003E8000319F729BD07380803110318013E03193B
:1003F800FE29BE07390803110318013E0319052A0F
:10040800BF072F08B6003608A00034080A128A1160
:10041800CB270A128A11831203132108C700200868
:10042800C6004608B6004708B700B801B901360843
:10043800C207370803110318013E0319242AC3070A
:10044800380803110318013E03192B2AC407390879
:1004580003110318013E0319322AC5073008B600F4
:100468003608A00033080A128A11CB270A128A110B
:10047800831203132108C7002008C6004608B600E7
:100488004708B700B801B9013608C2073708031191
:100498000318013E0319512AC3073808031103182A
:1004A800013E0319582AC407390803110318013EED
:1004B80003195F2AC5073008B6003608A0003408BB
:1004C8000A128A11CB270A128A11831203132108F0
:1004D800C7002008C6004608B6004708B700B8019C
:1004E800B90108300310B60DB70DB80DB90DFF3EB0
:1004F800031D762A3608C207370803110318013E80
:100508000319872AC307380803110318013E031982
:100518008E2AC407390803110318013E0319952AC6
:10052800C5073C08B6003D08B7003E08B8003F08BC
:10053800B90018300310B90CB80CB70CB60CFF3E54
:10054800031D9E2A3608C207370803110318013E07
:100558000319AF2AC307380803110318013E03190A
:10056800B62AC407390803110318013E0319BD2A26
:10057800C5070830B6000310BC0DBD0DBE0DBF0D7C
:10058800B60BBF2A41084007B600B701B70D3608B9
:10059800823EC60037080318013EFF3EC700F12A15
:1005A8000130B6000310C20DC30DC40DC50DB60B46
:1005B800D62ABF1FE02AE12AE22A42140130B600F7
:1005C8000310BC0DBD0DBE0DBF0DB60BE42AFF30E8
:1005D800C6070318C70AFF30C707C41FF42AF52A3D
:1005E800D42AC001BF1FF92AFA2A162BFF303C056E
:1005F800B600FF303D05B700FF303E05B8007F303C
:100608003F05B900390838043704360403190D2B9F
:100618000E2B112BC001C00A162B421C142B152BB4
:10062800162B0E2B400803191A2B1B2B4C2B0130B1
:10063800C207003003180130C30700300318013027
:10064800C407003003180130C507451C2C2B2D2B7F
:100658004C2B4208B6004308B7004408B8004508C8
:10066800B9000130BA00390DB90CB80CB70CB60C8A
:10067800BA0B372B3908C5003808C4003708C3003F
:100688003608C2000130C6070318C70A0030C7077A
:100698004708803AFF0080307F02031D552BFF304A
:1006A8004602031C582B592B642B7F3083120313EB
:1006B800C5008030C4000030C3000030C200992B50
:1006C800831203134708803AFF0080307F02031D1E
:1006D8006F2B013046020318722B732B7F2B0030CF
:1006E80083120313C5000030C4000030C30000307B
:1006F800C200BB01992B831203134608B6003608C3
:10070800C100FF30C205FF30C3057F30C40500308B
:10071800C505411C902B912B922BC4174108B6009C
:100728000310360CB7003708C5003B08B60036087A
:10073800C5044508B1004408B0004308AF004208AA
:10074800AE0008000A128A154C260A128A1183166E
:100758000313051488010A128A110E270A128A1136
:1007680083160313061408108312031308108E014E
:100778008F0190101012901210148B178316031308
:1007880001170B168B150C14831203130C100B177F
:10079800831603132108803AFF0080307F02031D6F
:1007A800D72B04302002031CDA2BDB2BCC2B83162F
:1007B8000313A001A1010A128A1523260A128A111D
:1007C800831203132108FC002008FB007B08A0000B
:1007D8007C08A100A201A30100300A128A11D625C3
:1007E8000A128A11831203132308B5002208B400E1
:1007F8002108B3002008B2004030B1009C30B0009E
:100808006730AF001A30AE000A128A1145200A126A
:100818008A11831203133108CB003008CA002F084D
:10082800C9002E08C8000A128A1192260A128A11D3
:10083800831203134908FA004808F9000A30A00097
:100848000030A1007A08A3007908A2000A128A15CC
:1008580062270A128A11831203132108ED00200867
:10086800EC006C086E02EA006D08031C6D0A6F024A
:10087800EB0000306B021F3003196A02031C452C81
:10088800462C482CF701F8016B08A1006A08A00063
:10089800CB30A2000030A3000A128A15C2260A1221
:1008A8008A1183120313210883160313A5008312E8
:1008B8000313200883160313A400831203136B0881
:1008C800A1006A08A0000730A2000030A3000A12A5
:1008D8008A15C2260A128A11770883120313200781
:1008E800F70078080318780A2107F80077088316B4
:1008F8000313240783120313E80078080318780AFF
:1009080083160313250783120313E9006B08831664
:100918000313A700831203136A0883160313A600A0
:100928002130831203136902993003196802031CEA
:100938009E2C9F2CA32C9830E8002130E9000A1245
:100948008A1503260A128A110B3083120313D30067
:100958005308AE006F08B0006E08AF0054300A129A
:100968008A11EC240A128A1183120313A401A40A1F
:1009780001300A128A15A8270A128A1154300A125D
:100988008A159D260A128A11163083120313D30082
:100998005308AE006D08B0006C08AF0054300A125E
:1009A8008A11EC240A128A1183120313A401A40ADF
:1009B80002300A128A15A8270A128A1154300A121C
:1009C8008A159D260A128A11CC2B0A128A110C2824
:1009D80083120313B9002F30B1003108B400BF2DC2
:1009E80025303A060319F92CFA2C062D3A08B100DD
:1009F800390884003108831380000130B1003108C0
:100A0800B907BF2DB5010130AE07FF302E078400AE
:100A18000A128A1500200A128A11BA00B100B2011E
:100A28003208003A0319192DBF2D3108003A03196D
:100A3800D12D643A0319242D0D3A0319242DBF2D05
:100A48003408840083130008B700840A0008B8003B
:100A58000230B1003108B407B81F332D342D3D2DB5
:100A68000330B1003108B504B709B809B70A03194A
:100A7800B80ABA01BA0A3A08B1003107013E84003F
:100A88000A128A1500200A128A11B2000A128A155F
:100A980000200A128A11B30033083802031D562DAC
:100AA800320837020318592D5A2D5B2D652D013058
:100AB800B1003108BA0705303A06031D642D652DCB
:100AC8003F2D3508033903196A2D6B2D762D2D30EE
:100AD800B100390884003108831380000130B10067
:100AE8003108B9073A08B1003108B600B62D0A3006
:100AF800A8000030A9003608B1003107013E840083
:100B08000A128A1500200A128A11A0000A128A15F0
:100B180000200A128A11A1003808A3003708A20091
:100B28000A128A1562270A128A11831203132108EE
:100B3800AB002008AA000A128A15E9260A128A11AF
:100B4800831203132808303EB2003208BA003A086C
:100B5800B100390884003108831380000130B100E6
:100B68003108B907FF30B1003108B607360A031D4E
:100B7800BE2DBF2D7B2D0130AE07FF302E07840020
:100B88000A128A1500200A128A11B1003108BA0027
:100B98003A08031DD02DD12DF42C39088400831375
:100BA8008001080083120313A80028080319DD2D0B
:100BB800DE2DF22DA31FE12DE22DF22D2009AA0032
:100BC8002109AB002209AC002309AD00AA0A0319C8
:100BD800AB0A0319AC0A0319AD0AFA2D2308AD00B4
:100BE8002208AC002108AB002008AA002308220430
:100BF80021042004031D012E022E0B2E0030A30019
:100C08000030A2000030A1000030A000912E9630E4
:100C1800A4002408A9001D2E0130A4002408A90757
:100C280001300310AD0CAC0CAB0CAA0CFF3E031D3D
:100C3800152EFE302D05031D222E232E102E3F2E9D
:100C48000130A4002408A9070130AA0700300318BE
:100C58000130AB07003003180130AC07003003182F
:100C68000130AD0701300310AD0CAC0CAB0CAA0C75
:100C7800FF3E031D372EFF302D05031D442E452E44
:100C8800242E512E0130A9020130A4000310AA0D10
:100C9800AB0DAC0DAD0DA40B4A2EAC1B542E552E2E
:100CA8005B2E0230290203185A2E5B2E462E291875
:100CB8005E2E5F2E672EFF30AA05FF30AB057F3012
:100CC800AC05FF30AD050310A90C2908A400A50147
:100CD800A601A70118300310A40DA50DA60DA70D98
:100CE800FF3E031D6F2E2408AA042508AB0426081E
:100CF800AC042708AD0428080319832E842E892EF6
:100D0800A31F872E882E892EAD172D08A3002C0827
:100D1800A2002B08A1002A08A000080003108312D3
:100D280003134A0D4B0DCC004C08D2005208031D8A
:100D38009E2E9F2EA82E0030CB000030CA00003017
:100D4800C9000030C8000D2F4808CC004908CD0064
:100D58004A08CE004B08CF001F300310CF0CCE0C32
:100D6800CD0CCC0CFF3E031DB12E4C08D000500812
:100D7800D100CA17FF30C805FF30C905FF30CA05C2
:100D88000030CB059630D202D21FCB2ECC2EE62EC9
:100D98005208803A973E0318D22ED32ED42E9F2E77
:100DA80001300310CB0CCA0CC90CC80CFF3E031D44
:100DB800D52E0130CC004C08D207031DE42EE52EB9
:100DC800D42EFD2E20305202031CEB2EEC2EF82ED2
:100DD8009F2E0130CC000310C80DC90DCA0DCB0DD4
:100DE800CC0BEF2E0130D2025208031DFC2EFD2E33
:100DF800ED2E51080319012F022F0D2FC809C9091B
:100E0800CA09CB09C80A0319C90A0319CA0A031966
:100E1800CB0A080000300A128A157D260A128A11A8
:100E28001A3083120313A500F730A400A40B1A2F5D
:100E3800A50B1A2F1F2F03300A128A1561260A12D2
:100E48008A11073083120313A5007C30A400A40B79
:100E58002B2FA50B2B2F000003300A128A156126B1
:100E68000A128A110F3083120313A5004730A40019
:100E7800A40B3C2FA50B3C2F03300A128A156126C0
:100E88000A128A1102300A128A1561260A128A1178
:100E980002300A128A1561260A128A1108300A12CB
:100EA8008A1561260A128A1100300A128A156126EB
:100EB8000A128A110C300A128A1561260A128A113E
:100EC80000300A128A1561260A128A1106300A129F
:100ED8008A1561260A128A1108000B1C742F752FB7
:100EE8008C2F83120313061E7A2F7B2F812F01303C
:100EF800EE070318EF0A0030EF07861E842F852FB0
:100F08008B2F0130EE020030031CEF03EF020B10B1
:100F18008B1C8F2F902FB32F83120313680883160F
:100F280003132E02F000831203136908031C690AD5
:100F3800831603132F02F1000A128A1537260A12A4
:100F48008A11831203130814C730F400AB2FF40B73
:100F5800AA2FAE2FAF2F8312031308108B10831202
:100F680003130C1CB82FB92FC42F01308316031399
:100F7800A0070318A10A0030A107831203130C105D
:100F880076088A00750E8300FE0E7E0E0900831215
:100F98000313A800A401A5012008A200A3012208A8
:100FA800A6002308A700281CDA2FDB2FE12F26082C
:100FB800A4070318A50A2708A50701300310A60DE2
:100FC800A70DFF3E031DE22F0310A80C2808031DE0
:100FD800EE2FEF2FD72F2508A1002408A000080026
:100FE8000134003407340034CB340034283423343B
:040FF8002534003468
:1010000008308A000408840A82070034013400345E
:101010000A34003464340034E834033410342734A0
:10102000533465347434203420343D342034253432
:101030006434203400345234653461346C342034E8
:0C1040003D342034253464342034003466
:101C060000300A128A1561260A128A1501300A1254
:101C16008A1561260A128A1508007E088A007F083E
:101C260082000A128A1510260A128A158000840A72
:101C360004087D0603190034FF0A0319FE0A142E50
:101C4600831203131F151F19292E2A2E262E1E084E
:101C5600A300831603131E0883120313A20023088E
:101C6600A1002208A0000800F201F301412E0000A5
:101C76000130F2070318F30A0030F3077108730204
:101C8600031D472E70087202031C4A2E4B2E3A2E55
:101C96000800831603131F13831203139F131F17C2
:101CA6009F121F129F11831603139F179F151F154F
:101CB6009F141F10831203131F14080083120313AB
:101CC600A300081123080A128A157D260A128A150E
:101CD600831203138815063083120313A2002F30D4
:101CE600A100A10B742EA20B742E792E831203135E
:101CF6008811080083120313A000201C832E842E53
:101D0600862E0816872E0812A01C8A2E8B2E8D2E44
:101D160088168E2E8812201D912E922E942E08172C
:101D2600952E0813A01D982E992E9B2E88179C2E53
:101D36008813080083120313A800A601A701B62E74
:101D460026082807A5002508840000080A128A1517
:101D560025270A128A15013083120313A6070318D2
:101D6600A70A0030A70726082807A500250884002B
:101D760083130008031DC02EC12EA32E0800831254
:101D86000313A401A501201CC92ECA2ED02E220899
:101D9600A4070318A50A2308A50701300310A20DFE
:101DA600A30DFF3E031DD12E01300310A10CA00C84
:101DB600FF3E031DD82E20082104031DE32EE42E2A
:101DC600C62E2508A1002408A000080083120313CC
:101DD600280829040319F02EF12E202FAD01AD0A93
:101DE600FF2E01300310A80DA90DFF3E031DF52E91
:101DF6000130AC002C08AD07A91F022F032FF42ECB
:101E060029082B02031D092F28082A02031C0C2F60
:101E16000D2F132F2808AA022908031CAB03AB02B7
:101E260001300310A90CA80CFF3E031D142F01302E
:101E3600AD02031D1F2F202F032F2B08A9002A08F0
:101E4600A800080083120313A40024080F39A10078
:101E56002108A2002408F039A1002108A3000815D2
:101E66002308A10004300310A10CFF3E031D362FEA
:101E760021080A128A157D260A128A15831203136F
:101E860088150C3083120313A100A10B482F000004
:101E960083120313881122080A128A157D260A1254
:101EA6008A158312031388150C3083120313A100BD
:101EB600A10B5B2F00008312031388110800831205
:101EC6000313A501A6012008210403196B2F6C2F0B
:101ED600A32FA701A70A7A2F01300310A00DA10D89
:101EE600FF3E031D702F0130A4002408A707A11F81
:101EF6007D2F7E2F6F2F01300310A50DA60DFF3EFF
:101F0600031D7F2F21082302031D8B2F2008220289
:101F1600031C8E2F8F2F962F2008A2022108031C48
:101F2600A303A302251401300310A10CA00CFF3E4D
:101F3600031D972F0130A702031DA22FA32F7E2F6B
:101F46002608A1002508A000080083120313A70095
:101F56002703031DAF2FB02FD52F24087F3EA500E2
:101F66002508AA002A08A50004300310A50CFF3E88
:101F7600031DB82F2508A6002608A8002A080F3931
:101F8600A5002508A90028080A128A1561260A1242
:101F96008A158312031329080A128A1561260A1262
:101FA6008A15FF2F02302706031DDA2FDB2FFF2F9E
:101FB6002408BF3EA5002508AA002A08A50004306B
:101FC6000310A50CFF3E031DE32F2508A6002608D7
:101FD600A8002A080F39A5002508A90028080A1212
:101FE6008A1561260A128A158312031329080A1212
:0A1FF6008A1561260A128A150800F8
:02400E00713F00
:00000001FF
