:020000040000FA
:060000000A128A110C280F
:10000800FE00030EF3000A08F4000A128A116D2F8D
:100018000A128A110F288313B630FD000A30FE0039
:10002800B530FF00B03084000A128A15D4220A12B3
:100038008A116430FD000A30FE00B130FF006030E4
:1000480084000A128A15D4220A128A11831603130D
:10005800B601B7014C30840060300A128A15BB2201
:100068000A128A11F501F601F701F80183010A1253
:100078008A117C2D831203132C088039B1003108B2
:10008800B6002C08B1003107B2003208BC00AB1F23
:100098004E284F2850283C143C080319542855284A
:1000A80064283C0A031D59285A2862280030AC00ED
:1000B8000030AB000030AA000030A900AB176C2854
:1000C8000030AC000030AB000030AA000030A900BE
:1000D80030088039B1003108B6063008B100310760
:1000E800B2003208B700AF1F7A287B287C28371463
:1000F80037080319802881289028370A031D852886
:1001080086288E280030B0000030AF000030AE00E6
:100118000030AD00AF1798280030B0000030AF00B5
:100128000030AE000030AD00370803199C289D2828
:10013800A2283C08031DA128A228AB280030AC0047
:100148000030AB000030AA000030A9009E2B29081F
:10015800B1003108A0002F080A128A1598230A1244
:100168008A11831203132108C2002008C100410824
:10017800B100B201B301B4013408BB003308BA00BE
:100188003208B9003108B8004208B100B201B30121
:10019800B4013408C0003308BF003208BE0031087B
:1001A800BD002A08B1003108A0002E080A128A15DD
:1001B80098230A128A11831203132108C200200807
:1001C800C1004108B100B201B301B4013108B80758
:1001D800320803110318013E0319F328B90733083D
:1001E80003110318013E0319FA28BA07340803114A
:1001F8000318013E03190129BB074208B100B201E7
:10020800B301B4013108BD07320803110318013ED8
:1002180003190F29BE07330803110318013E0319F8
:100228001629BF07340803110318013E03191D29B5
:10023800C0072B08B1003108A0002D080A128A1542
:1002480098230A128A11831203132108C200200876
:10025800C1004108B100B201B301B4013108B807C7
:10026800320803110318013E03193B29B907330863
:1002780003110318013E03194229BA073408031170
:100288000318013E03194929BB074208B100B2010E
:10029800B301B4013108BD07320803110318013E48
:1002A80003195729BE07330803110318013E031920
:1002B8005E29BF07340803110318013E0319652995
:1002C800C0070830B1000310B80DB90DBA0DBB0D49
:1002D800B10B67292A08B1003108A0002D080A12BD
:1002E8008A1598230A128A11831203132108C2005F
:1002F8002008C1004108B1004208B200B301B401AE
:100308003108B807320803110318013E03198D2973
:10031800B907330803110318013E03199429BA07D2
:10032800340803110318013E03199B29BB07290848
:10033800B1003108A0002E080A128A1598230A1263
:100348008A11831203132108C2002008C100410842
:10035800B1004208B200B301B4013108B80732084D
:1003680003110318013E0319BA29B9073308031109
:100378000318013E0319C129BA07340803110318E9
:10038800013E0319C829BB070830B1000310B80D96
:10039800B90DBA0DBB0DB10BCA292908B100310836
:1003A800A0002D080A128A1598230A128A118312AE
:1003B80003132108C2002008C1004108B100420807
:1003C800B200B301B4013108B807320803110318A9
:1003D800013E0319F029B907330803110318013E38
:1003E8000319F729BA07340803110318013E031942
:1003F800FE29BB072A08B1003108A0002F080A12FD
:100408008A1598230A128A11831203132108C2003D
:100418002008C1004108B1004208B200B301B4018C
:100428003108BD07320803110318013E03191D2ABC
:10043800BE07330803110318013E0319242ABF0716
:10044800340803110318013E03192B2AC0072B088F
:10045800B1003108A0002E080A128A1598230A1242
:100468008A11831203132108C2002008C100410821
:10047800B1004208B200B301B4013108BD07320827
:1004880003110318013E03194A2ABE073308031152
:100498000318013E0319512ABF0734080311031832
:1004A800013E0319582AC0072B08B1003108A000E3
:1004B8002F080A128A1598230A128A118312031325
:1004C8002108C2002008C1004108B1004208B2005A
:1004D800B301B40108300310B10DB20DB30DB40D62
:1004E800FF3E031D6F2A3108BD07320803110318A8
:1004F800013E0319802ABE07330803110318013E81
:100508000319872ABF07340803110318013E03198A
:100518008E2AC0073808B1003908B2003A08B3007B
:100528003B08B40018300310B40CB30CB20CB10C77
:10053800FF3E031D972A3108BD073208031103182F
:10054800013E0319A82ABE07330803110318013E08
:100558000319AF2ABF07340803110318013E031912
:10056800B62AC0070830B1000310B80DB90DBA0D8E
:10057800BB0DB10BB82A3C083707B100B201B20D68
:100588003108823EC10032080318013EFF3EC20016
:10059800EA2A0130B1000310BD0DBE0DBF0DC00D1C
:1005A800B10BCF2ABB1FD92ADA2ADB2A3D14013026
:1005B800B1000310B80DB90DBA0DBB0DB10BDD2A92
:1005C800FF30C1070318C20AFF30C207BF1FED2A58
:1005D800EE2ACD2AB701BB1FF22AF32A0F2BFF30D0
:1005E8003805B100FF303905B200FF303A05B300D5
:1005F8007F303B05B4003408330432043104031956
:10060800062B072B0A2BB701B70A0F2B3D1C0D2B06
:100618000E2B0F2B072B37080319132B142B452BE5
:100628000130BD07003003180130BE070030031841
:100638000130BF07003003180130C007401C252BCC
:10064800262B452B3D08B1003E08B2003F08B300F9
:100658004008B4000130B500340DB40CB30CB20C32
:10066800B10CB50B302B3408C0003308BF0032087A
:10067800BE003108BD000130C1070318C20A0030AE
:10068800C2074208803AFF0080307F02031D4E2BCC
:10069800FF304102031C512B522B5D2B7F308312FC
:1006A8000313C0008030BF000030BE000030BD0022
:1006B800922B831203134208803AFF0080307F0296
:1006C800031D682B0130410203186B2B6C2B782B10
:1006D800003083120313C0000030BF000030BE009A
:1006E8000030BD00B601922B831203134108B100FC
:1006F8003108BC00FF30BD05FF30BE057F30BF05A7
:100708000030C0053C1C892B8A2B8B2BBF173C085B
:10071800B1000310310CB2003208C0003608B10035
:100728003108C0044008AC003F08AB003E08AA00EE
:100738003D08A90008008312031327088039A80080
:100748002808B1002708A8002807A9002908B80028
:10075800A61FAF2BB02BB12B381438080319B52BB3
:10076800B62BC62B380A031DBA2BBB2BC32B003064
:10077800A7000030A6000030A5000030A400A6178E
:10078800A701CE2B0030A7000030A6000030A5003E
:100798000030A40023088039A8002808B1062308DF
:1007A800A8002807A9002908B900A21FDC2BDD2B07
:1007B800DE2B391439080319E22BE32BF32B390A02
:1007C800031DE72BE82BF02B0030A3000030A2001C
:1007D8000030A1000030A000A217A301FB2B0030BD
:1007E800A3000030A2000030A1000030A0002308C0
:1007F800220421042004031D022C032C1C2C00308D
:10080800A7000030A6000030A5000030A40080300A
:10081800A6047F30A7043108A8002808A7042708E1
:10082800A3002608A2002508A1002408A0007B2D0B
:100838003808031D202C212C2A2C0030A30000305E
:10084800A2000030A1000030A0007B2D3808A800CD
:10085800A9012908AB0039082802AA00031CAB0328
:100868002A087F3EB2002B080318013E003EB30061
:100878002708B0002608AF002508AE002408AD0000
:100888000030A7000030A6000030A5000030A4000A
:100898000030B7000030B6000030B5000030B400BA
:1008A800B901A02C390803195A2C5B2C7B2C013078
:1008B800A8000310AD0DAE0DAF0DB00DA80B5D2C4B
:1008C8000130A8000310A40DA50DA60DA70DA80BB7
:1008D800662CB71F702C712C722C24140130A800C0
:1008E8000310B40DB50DB60DB70DA80B742C230865
:1008F8003002031D892C22082F02031D892C210890
:100908002E02031D892C20082D02031C8C2C8D2CF3
:100918009C2C37172008AD022108031C210FAE02BA
:100928002208031C220FAF022308031C230FB00266
:100938000130A8002808B9071A303902031CA52C71
:10094800A62C562C30082F042E042D040319AD2C88
:10095800AE2CCD2C3414CD2C0130A8000310A40DDE
:10096800A50DA60DA70DA80BB22CB71FBC2CBD2C2E
:10097800BE2C24140130A8000310B40DB50DB60D1B
:10098800B70DA80BC02CFF30B2070318B30AFF300D
:10099800B307A61FD02CD12CB02CB901B71FD52C6A
:1009A800D62CF22CFF303405A800FF303505A900FD
:1009B800FF303605AA007F303705AB002B082A0424
:1009C800290428040319E92CEA2CED2CB901B90AE9
:1009D800F22C241CF02CF12CF22CEA2C39080319E7
:1009E800F62CF72C282D0130A4070030031801300D
:1009F800A507003003180130A6070030031801309E
:100A0800A707271C082D092D282D2408A80025082C
:100A1800A9002608AA002708AB000130AC002B0D5E
:100A2800AB0CAA0CA90CA80CAC0B132D2B08A70017
:100A38002A08A6002908A5002808A4000130B20742
:100A48000318B30A0030B3073308803AFF00803038
:100A58007F02031D312DFF303202031C342D352D4A
:100A6800432DFF3083120313B2000030B30000306F
:100A7800A7000030A6000030A5000030A4008312B3
:100A880003133308803AFF0080307F02031D4E2D88
:100A9800013032020318512D522D5F2D831203139A
:100AA800B201B3010030A7000030A6000030A50055
:100AB8000030A400B101831203133208A8002808EB
:100AC800B800381C682D692D6B2DA6176F2D7F3047
:100AD800A8002808A6053808A8000310280CA900B3
:100AE8002908A7003108A8002808A704132C080023
:100AF8000A128A15E3220A128A11831603130514AF
:100B0800071183120313071509309700831603137F
:100B18000C11831203130C110030A000A1000A125B
:100B28008A15F8220A128A11831603138801831280
:100B3800031308100A128A15D8240A128A11831678
:100B480003130616861606148611861383120313DA
:100B580086158613831603130613831203130617C9
:100B680038308100831603138101B13083120313D7
:100B78008F00E0308E00901010129016101406307E
:100B88009100063092008B170B1783160313011779
:100B98000B168B158B120B110C14831203130C10EC
:100BA800831603138C14831203138C100A128A15EC
:100BB800A5250A128A110A128A15C3220A128A1155
:100BC8000B3083120313CB004B08AE006308B00050
:100BD8006208AF00A0300A128A1183260A128A110D
:100BE80083120313A401A40A01300A128A1580246F
:100BF8000A128A11A0300A128A154C230A128A1185
:100C0800163083120313CB004B08AE005F08B00008
:100C18005E08AF00A0300A128A1183260A128A11D0
:100C280083120313A401A40A02300A128A1580242D
:100C38000A128A11A0300A128A154C230A128A1144
:100C4800123083120313CB004B08AE005908B000D2
:100C58005808AF00A0300A128A1183260A128A1196
:100C68000C3083120313CB004B08A40001300A1286
:100C78008A1580240A128A11A0300A128A154C2378
:100C88000A128A11831203136308803ACB005F08A3
:100C9800803A4B02031D522E5E0862020318552E3D
:100CA800562E632E8312031306135A30A000003009
:100CB800A1000A128A15F8220A128A116E2E8312CE
:100CC800031306170030A000A1000A128A15F822A3
:100CD8000A128A11831203134C034D04031D752E47
:100CE800762EDA2D0A128A1599260A128A1183128B
:100CF8000313CC01CD01DA2D0A128A110C288312B4
:100D08000313B9002F30B1003108B400562F253035
:100D18003A060319902E912E9D2E3A08B1003908F3
:100D280084003108831380000130B1003108B9070D
:100D3800562FB5010130AE07FF302E0784000A1286
:100D48008A1500200A128A11BA00B100B2013208CD
:100D5800003A0319B02E562F3108003A0319682FAC
:100D6800643A0319BB2E0D3A0319BB2E562F3408CB
:100D7800840083130008B700840A0008B800023012
:100D8800B1003108B407B81FCA2ECB2ED42E0330B9
:100D9800B1003108B504B709B809B70A0319B80A88
:100DA800BA01BA0A3A08B1003107013E84000A12B2
:100DB8008A1500200A128A11B2000A128A15002028
:100DC8000A128A11B30033083802031DED2E3208C7
:100DD80037020318F02EF12EF22EFC2E0130B1004E
:100DE8003108BA0705303A06031DFB2EFC2ED62E15
:100DF800350803390319012F022F0D2F2D30B100AB
:100E0800390884003108831380000130B1003108AB
:100E1800B9073A08B1003108B6004D2F0A30A800CA
:100E28000030A9003608B1003107013E84000A12DB
:100E38008A1500200A128A11A0000A128A150020B9
:100E48000A128A11A1003808A3003708A2000A1262
:100E58008A153A240A128A11831203132108AB0057
:100E68002008AA000A128A15C1230A128A118312BD
:100E780003132808303EB2003208BA003A08B1001D
:100E8800390884003108831380000130B10031082B
:100E9800B907FF30B1003108B607360A031D552FD0
:100EA800562F122F0130AE07FF302E0784000A128A
:100EB8008A1500200A128A11B1003108BA003A08CE
:100EC800031D672F682F8B2E390884008313800138
:100ED80008000B1C702F712FA42F83120313061AFE
:100EE800762F772F8B2F0330F2000830F100773000
:100EF800F000F00B7D2FF10B7D2FF20B7D2F0130D1
:100F080083120313E2070318E30A0030E307861A83
:100F18008E2F8F2FA32F0330F2000830F100773087
:100F2800F000F00B952FF10B952FF20B952FFF305A
:100F380083120313E2070318E30AFF30E3070B10D9
:100F48000B1DA72FA82FC82F383083120313810039
:100F58000130D0070318D10A0030D10751085906CB
:100F6800031DB82F50085806031DBB2FBC2FC72FD1
:100F780086170D30F000F00BBF2F83120313861372
:100F8800D001D1018B120B11831203130C1CCD2F2E
:100F9800CE2FD72F9701071509309700B1308F0052
:100FA800E0308E000C108C1CDA2FDB2FF32F06306C
:100FB80091000130CE070318CF0A0030CF07E83080
:100FC8004E06033003194F06031DEB2FEC2FF22FAB
:100FD800CE01CF010130CC000030CD008C108B1C2D
:100FE800F62FF72FF92F8B168B1074088A00730EC3
:100FF8008300FE0E7E0E090008308A000408840A69
:1010080082070034013400340A3400346434003474
:10101800E8340334103427345334653474342034BA
:1010280020343D34203425346434203400345234A0
:10103800653461346C3420343D34203425346434D0
:04104800203400341C
:10156200CB34003425340034E834033401340034FD
:101572000734003464008001840A0406031900342D
:101582000406BC2A00300A128A1510230A128A1590
:1015920001300A128A1510230A128A1508007E08E1
:1015A2008A007F0882000A128A15D0220A128A153E
:1015B2008000840A04087D0603190034FF0A031917
:1015C200FE0AD42A831603131F13831203139F17D1
:1015D2001F139F161F129F15831603139F179F1128
:1015E2001F119F101F10831203131F140800831270
:1015F200031320082104031DFF2A002B042BB430FF
:101602009600303095005A3020062104031D0A2B23
:101612000B2B0F2BB7309600A830950008008312D1
:101622000313A300881323080A128A152C230A1213
:101632008A15831203130817063083120313A200BC
:101642002F30A100A10B232BA20B232B282B8312BB
:1016520003130813080083120313A000201C322B6B
:10166200332B352B8816362B8812A01C392B3A2B9C
:101672003C2B08163D2B0812201D402B412B432BDF
:101682008815442B8811A01D472B482B4A2B08157F
:101692004B2B0811080083120313A800A601A7010F
:1016A200652B26082807A5002508840000080A12D1
:1016B2008A15FD230A128A15013083120313A60725
:1016C2000318A70A0030A70726082807A50025083F
:1016D200840083130008031D6F2B702B522B08000C
:1016E20083120313A401A501201C782B792B7F2BD5
:1016F2002208A4070318A50A2308A507013003102E
:10170200A20DA30DFF3E031D802B01300310A10C7F
:10171200A00CFF3E031D872B20082104031D922BE2
:10172200932B752B2508A1002408A0000800831222
:101732000313A800A401A5012008A200A301220806
:10174200A6002308A700281CA72BA82BAE2B26082F
:10175200A4070318A50A2708A50701300310A60D40
:10176200A70DFF3E031DAF2B0310A80C2808031D75
:10177200BB2BBC2BA42B2508A1002408A000080029
:1017820083120313280829040319C82BC92BF82B29
:10179200AD01AD0AD72B01300310A80DA90DFF3EF4
:1017A200031DCD2B0130AC002C08AD07A91FDA2B8D
:1017B200DB2BCC2B29082B02031DE12B28082A0244
:1017C200031CE42BE52BEB2B2808AA022908031C97
:1017D200AB03AB0201300310A90CA80CFF3E031DA2
:1017E200EC2B0130AD02031DF72BF82BDB2B2B0862
:1017F200A9002A08A800080083120313A4002408E1
:101802000F39A1002108A2002408F039A100210803
:10181200A30088172308A10004300310A10CFF3E87
:10182200031D0E2C21080A128A152C230A128A156E
:10183200831203130817343083120313A100A10B80
:10184200202C000083120313081322080A128A159F
:101852002C230A128A1583120313081734308312B9
:101862000313A100A10B332C0000831203130813EE
:10187200080083120313A601A701200821040319FB
:10188200432C442C7B2CA501A50A522C01300310B9
:10189200A00DA10DFF3E031D482C0130A400240819
:1018A200A507A11F552C562C472C01300310A60D5D
:1018B200A70DFF3E031D572C21082302031D632C95
:1018C20020082202031C662C672C6E2C2008A20220
:1018D2002108031CA303A302261401300310A10C48
:1018E200A00CFF3E031D6F2C0130A502031D7A2CB4
:1018F2007B2C562C2708A1002608A0000800831282
:101902000313A7002703031D872C882CAD2C240862
:101912007F3EA5002508AA002A08A500043003106E
:10192200A50CFF3E031D902C2508A6002608A80042
:101932002A080F39A5002508A90028080A128A15C5
:1019420010230A128A158312031329080A128A1510
:1019520010230A128A15D72C02302706031DB22C37
:10196200B32CD72C2408BF3EA5002508AA002A08BC
:10197200A50004300310A50CFF3E031DBB2C250857
:10198200A6002608A8002A080F39A5002508A900E4
:1019920028080A128A1510230A128A1583120313C1
:1019A20029080A128A1510230A128A150800003023
:1019B2000A128A152C230A128A156830831203131D
:1019C200A500E330A400A40BE42CA50BE42CE92C25
:1019D20003300A128A1510230A128A151A3083124A
:1019E2000313A500F730A400A40BF52CA50BF52CCE
:1019F200FA2C03300A128A1510230A128A153A3079
:101A020083120313A5002230A400A40B062DA50BFC
:101A1200062D000003300A128A1510230A128A15B5
:101A220002300A128A1510230A128A1502300A128B
:101A32008A1510230A128A1508300A128A151023F1
:101A42000A128A1500300A128A1510230A128A1500
:101A52000C300A128A1510230A128A1500300A1253
:101A62008A1510230A128A1506300A128A151023C3
:101A72000A128A15080083120313A601A11F422D20
:101A8200432D4A2DA009A109A00A0319A10AA60102
:101A9200A60AA31F4D2D4E2D572DA209A309A20A56
:101AA2000319A30A0130A4002408A606A701A8016D
:101AB2002008210403195E2D5F2D962DA501A50A8C
:101AC2006D2D01300310A00DA10DFF3E031D632DEE
:101AD2000130A4002408A507A11F702D712D622DCD
:101AE20001300310A70DA80DFF3E031D722D210822
:101AF2002302031D7E2D20082202031C812D822D2C
:101B0200892D2008A2022108031CA303A302271483
:101B120001300310A10CA00CFF3E031D8A2D0130E1
:101B2200A502031D952D962D712D260803199A2DB8
:101B32009B2DA02DA709A809A70A0319A80A2808FE
:101B4200A1002708A0000800831203131F151F1904
:101B5200AB2DAC2DA82D1E08C500C6014508C60038
:101B6200C501831603131E08831203134507A00041
:101B72000030031801304607A100A201A11BA203F5
:101B82002208A30001300A128A1544270A128A1574
:101B9200831203132308CA002208C9002108C800BF
:101BA2002008C7004030AC009C30AB006730AA0070
:101BB2001A30A9004A08B0004908AF004808AE0030
:101BC2004708AD000A128A113E200A128A158312B2
:101BD20003132C08CA002B08C9002A08C8002908C8
:101BE200C7004A08A7004908A6004808A5004708F8
:101BF200A4004130A3002030A2000030A100003038
:101C0200A0000A128A119F230A128A158312031353
:101C12002308BD002208BC002108BB002008BA002E
:101C22000A128A151D260A128A15831203133B080B
:101C3200DF003A08DE0008000310831203133C0D94
:101C42003D0DBE003E08C4004408031D292E2A2E65
:101C5200332E0030BD000030BC000030BB0000302D
:101C6200BA00982E3A08BE003B08BF003C08C000EC
:101C72003D08C1001F300310C10CC00CBF0CBE0CCC
:101C8200FF3E031D3C2E3E08C2004208C300BC17A3
:101C9200FF30BA05FF30BB05FF30BC050030BD0583
:101CA2009630C402C41F562E572E712E4408803A15
:101CB200973E03185D2E5E2E5F2E2A2E01300310F2
:101CC200BD0CBC0CBB0CBA0CFF3E031D602E0130D8
:101CD200BE003E08C407031D6F2E702E5F2E882E95
:101CE20020304402031C762E772E832E2A2E0130BA
:101CF200BE000310BA0DBB0DBC0DBD0DBE0B7A2E7E
:101D02000130C4024408031D872E882E782E430812
:101D120003198C2E8D2E982EBA09BB09BC09BD0958
:101D2200BA0A0319BB0A0319BC0A0319BD0A08003F
:101D3200831203135E086202F7005F08031C5F0A46
:101D42006302F8007808803AFF0080307F02031DAA
:101D5200AC2E1F307702031CAF2EB02EB22EF5012F
:101D6200F601780883120313A1007708A000CB3094
:101D7200A2000030A3000A128A1571230A128A15E2
:101D8200831203132108D5002008D4007808A1008B
:101D92007708A0000730A2000030A3000A128A15BB
:101DA20071230A128A157508831203132007F5009E
:101DB20076080318760A2107F6005C087702D2003B
:101DC2005D08031C5D0A7802D30075085407A90058
:101DD20076080318760A5507AA0052082907D80080
:101DE20053080318530A2A07D9007808DD00770838
:101DF200DC005908803AFF0086307F02031D032F62
:101E0200403058020318062F072F0D2F403083123F
:101E12000313D8000630D900831203135908803AFD
:101E2200FF00A0307F02031D182FD1305802031C7F
:101E32001B2F1C2F222FD03083120313D8002030E7
:101E4200D900103083120313A9002730AA005808C2
:101E52002902D8005908031C590A2A02D900643001
:101E6200A0000030A1005908A3005808A2000A12DD
:101E72008A153C250A128A15831203132108D900F8
:101E82002008D800080083120313A80028080319A9
:101E92004B2F4C2F602FA31F4F2F502F602F200945
:101EA200AA002109AB002209AC002309AD00AA0A4D
:101EB2000319AB0A0319AC0A0319AD0A682F2308E8
:101EC200AD002208AC002108AB002008AA002308BC
:101ED200220421042004031D6F2F702F792F00305C
:101EE200A3000030A2000030A1000030A000FF2FAC
:101EF2009630A4002408A9008B2F0130A4002408E6
:101F0200A90701300310AD0CAC0CAB0CAA0CFF3EC0
:101F1200031D832FFE302D05031D902F912F7E2F41
:101F2200AD2F0130A4002408A9070130AA07003010
:101F320003180130AB07003003180130AC07003042
:101F420003180130AD0701300310AD0CAC0CAB0C23
:101F5200AA0CFF3E031DA52FFF302D05031DB22F36
:101F6200B32F922FBF2F0130A9020130A40003101A
:101F7200AA0DAB0DAC0DAD0DA40BB82FAC1BC22F2F
:101F8200C32FC92F023029020318C82FC92FB42F1B
:101F92002918CC2FCD2FD52FFF30AA05FF30AB0546
:101FA2007F30AC05FF30AD050310A90C2908A40051
:101FB200A501A601A70118300310A40DA50DA60DB9
:101FC200A70DFF3E031DDD2F2408AA042508AB043C
:101FD2002608AC042708AD0428080319F12FF22FB4
:101FE200F72FA31FF52FF62FF72FAD172D08A300FC
:0E1FF2002C08A2002B08A1002A08A00008005D
:02400E00723FFF
:00000001FF
