:020000040000FA
:060000000A128A110C280F
:10000800FE00030EF3000A08F4000A128A15022EF5
:100018000A128A110F28831603130A128A15A722B7
:100028000A128A11B2000A128A15A8220A128A1123
:10003800B300831203130A128A15A9220A128A111D
:10004800DE000A128A15AA220A128A11DF000A1291
:100058008A15AB220A128A11E0000A128A15AC220C
:100068000A128A11E1000A128A15AD220A128A11AF
:10007800E2000A128A15AE220A128A11E3008316D8
:100088000313B001B10183134C3084005E300A12AF
:100098008A15AF220A128A11F501F601F701F80153
:1000A80083010A128A11962D831203132C088039B2
:1000B800B1003108B6002C08B1003107B20032088F
:1000C800BC00AB1F682869286A283C143C0803193F
:1000D8006E286F287E283C0A031D732874287C2804
:1000E8000030AC000030AB000030AA000030A9009E
:1000F800AB1786280030AC000030AB000030AA00F7
:100108000030A90030088039B1003108B60630083F
:10011800B1003107B2003208B700AF1F9428952804
:1001280096283714370803199A289B28AA28370ACB
:10013800031D9F28A028A8280030B0000030AF0079
:100148000030AE000030AD00AF17B2280030B0006C
:100158000030AF000030AE000030AD0037080319A2
:10016800B628B728BC283C08031DBB28BC28C528CE
:100178000030AC000030AB000030AA000030A9000D
:10018800B82B2908B1003108A0002F080A128A15D7
:1001980079230A128A11831203132108C200200846
:1001A800C1004108B100B201B301B4013408BB0079
:1001B8003308BA003208B9003108B8004208B10063
:1001C800B201B301B4013408C0003308BF003208DB
:1001D800BE003108BD002A08B1003108A0002E0871
:1001E8000A128A1579230A128A1183120313210825
:1001F800C2002008C1004108B100B201B301B40136
:100208003108B807320803110318013E03190D29F4
:10021800B907330803110318013E03191429BA0753
:10022800340803110318013E03191B29BB074208B0
:10023800B100B201B301B4013108BD07320803119E
:100248000318013E03192929BE07330803110318AF
:10025800013E03193029BF07340803110318013E72
:1002680003193729C0072B08B1003108A0002D0851
:100278000A128A1579230A128A1183120313210894
:10028800C2002008C1004108B100B201B301B401A5
:100298003108B807320803110318013E031955291C
:1002A800B907330803110318013E03195C29BA077B
:1002B800340803110318013E03196329BB074208D8
:1002C800B100B201B301B4013108BD07320803110E
:1002D8000318013E03197129BE07330803110318D7
:1002E800013E03197829BF07340803110318013E9A
:1002F80003197F29C0070830B1000310B80DB90DE4
:10030800BA0DBB0DB10B81292A08B1003108A00034
:100318002D080A128A1579230A128A1183120313E7
:100328002108C2002008C1004108B1004208B200FB
:10033800B301B4013108B807320803110318013EAC
:100348000319A729B907330803110318013E031934
:10035800AE29BA07340803110318013E0319B52959
:10036800BB072908B1003108A0002E080A128A1517
:1003780079230A128A11831203132108C200200864
:10038800C1004108B1004208B200B301B40131080C
:10039800B807320803110318013E0319D429B90715
:1003A800330803110318013E0319DB29BA0734087F
:1003B80003110318013E0319E229BB070830B100F5
:1003C8000310B80DB90DBA0DBB0DB10BE4292908FE
:1003D800B1003108A0002D080A128A1579230A12E3
:1003E8008A11831203132108C2002008C1004108A2
:1003F800B1004208B200B301B4013108B8073208AD
:1004080003110318013E03190A2AB9073308031117
:100418000318013E0319112ABA07340803110318F7
:10042800013E0319182ABB072A08B1003108A000A9
:100438002F080A128A1579230A128A1183120313C4
:100448002108C2002008C1004108B1004208B200DA
:10045800B301B4013108BD07320803110318013E86
:100468000319372ABE07330803110318013E03197D
:100478003E2ABF07340803110318013E0319452A11
:10048800C0072B08B1003108A0002E080A128A15EF
:1004980079230A128A11831203132108C200200843
:1004A800C1004108B1004208B200B301B4013108EB
:1004B800BD07320803110318013E0319642ABE0759
:1004C800330803110318013E03196B2ABF073408C8
:1004D80003110318013E0319722AC0072B08B10043
:1004E8003108A0002F080A128A1579230A128A11E6
:1004F800831203132108C2002008C1004108B1007B
:100508004208B200B301B40108300310B10DB20DB6
:10051800B30DB40DFF3E031D892A3108BD0732080B
:1005280003110318013E03199A2ABE073308031161
:100538000318013E0319A12ABF0734080311031841
:10054800013E0319A82AC0073808B1003908B200CB
:100558003A08B3003B08B40018300310B40CB30CCD
:10056800B20CB10CFF3E031DB12A3108BD07320899
:1005780003110318013E0319C22ABE0733080311E9
:100588000318013E0319C92ABF07340803110318C9
:10059800013E0319D02AC0070830B1000310B80D76
:1005A800B90DBA0DBB0DB10BD22A3C083707B10003
:1005B800B201B20D3108823EC10032080318013E73
:1005C800FF3EC200042B0130B1000310BD0DBE0D6B
:1005D800BF0DC00DB10BE92ABB1FF32AF42AF52A77
:1005E8003D140130B1000310B80DB90DBA0DBB0DA3
:1005F800B10BF72AFF30C1070318C20AFF30C20740
:10060800BF1F072B082BE72AB701BB1F0C2B0D2B8D
:10061800292BFF303805B100FF303905B200FF3013
:100628003A05B3007F303B05B40034083304320484
:1006380031040319202B212B242BB701B70A292BAE
:100648003D1C272B282B292B212B370803192D2B51
:100658002E2B5F2B0130BD07003003180130BE0779
:10066800003003180130BF07003003180130C007FD
:10067800401C3F2B402B5F2B3D08B1003E08B200C9
:100688003F08B3004008B4000130B500340DB40C85
:10069800B30CB20CB10CB50B4A2B3408C0003308AC
:1006A800BF003208BE003108BD000130C107031881
:1006B800C20A0030C2074208803AFF0080307F0239
:1006C800031D682BFF304102031C6B2B6C2B772B0F
:1006D8007F3083120313C0008030BF000030BE009B
:1006E8000030BD00AC2B831203134208803AFF0090
:1006F80080307F02031D822B013041020318852BB5
:10070800862B922B003083120313C0000030BF00E9
:100718000030BE000030BD00B601AC2B83120313BD
:100728004108B1003108BC00FF30BD05FF30BE05EF
:100738007F30BF050030C0053C1CA32BA42BA52B84
:10074800BF173C08B1000310310CB2003208C000DA
:100758003608B1003108C0044008AC003F08AB00BF
:100768003E08AA003D08A9000800831203132708C1
:100778008039A8002808B1002708A8002807A90080
:100788002908B800A61FC92BCA2BCB2B3814380848
:100798000319CF2BD02BE02B380A031DD42BD52BD4
:1007A800DD2B0030A7000030A6000030A500003087
:1007B800A400A617A701E82B0030A7000030A60068
:1007C8000030A5000030A40023088039A8002808BC
:1007D800B1062308A8002807A9002908B900A21F04
:1007E800F62BF72BF82B391439080319FC2BFD2BA2
:1007F8000D2C390A031D012C022C0A2C0030A300F1
:100808000030A2000030A1000030A000A217A30110
:10081800152C0030A3000030A2000030A1000030E9
:10082800A0002308220421042004031D1C2C1D2CD5
:10083800362C0030A7000030A6000030A50000309C
:10084800A4008030A6047F30A7043108A800280837
:10085800A7042708A3002608A2002508A100240849
:10086800A000952D3808031D3A2C3B2C442C003051
:10087800A3000030A2000030A1000030A000952D98
:100888003808A800A9012908AB0039082802AA00DD
:10089800031CAB032A087F3EB2002B080318013E55
:1008A800003EB3002708B0002608AF002508AE00B8
:1008B8002408AD000030A7000030A6000030A500D5
:1008C8000030A4000030B7000030B6000030B5009A
:1008D8000030B400B901BA2C39080319742C752CEE
:1008E800952C0130A8000310AD0DAE0DAF0DB00D65
:1008F800A80B772C0130A8000310A40DA50DA60D98
:10090800A70DA80B802CB71F8A2C8B2C8C2C241499
:100918000130A8000310B40DB50DB60DB70DA80B26
:100928008E2C23083002031DA32C22082F02031D3E
:10093800A32C21082E02031DA32C20082D02031C22
:10094800A62CA72CB62C37172008AD022108031CAB
:10095800210FAE022208031C220FAF022308031C3A
:10096800230FB0020130A8002808B9071A3039024D
:10097800031CBF2CC02C702C30082F042E042D040F
:100988000319C72CC82CE72C3414E72C0130A80015
:100998000310A40DA50DA60DA70DA80BCC2CB71FF1
:1009A800D62CD72CD82C24140130A8000310B40D51
:1009B800B50DB60DB70DA80BDA2CFF30B20703182A
:1009C800B30AFF30B307A61FEA2CEB2CCA2CB901D7
:1009D800B71FEF2CF02C0C2DFF303405A800FF308A
:1009E8003505A900FF303605AA007F303705AB0072
:1009F8002B082A04290428040319032D042D072D84
:100A0800B901B90A0C2D241C0A2D0B2D0C2D042D0F
:100A180039080319102D112D422D0130A40700307B
:100A280003180130A507003003180130A60700306D
:100A380003180130A707271C222D232D422D240837
:100A4800A8002508A9002608AA002708AB0001303D
:100A5800AC002B0DAB0CAA0CA90CA80CAC0B2D2DC3
:100A68002B08A7002A08A6002908A5002808A40022
:100A78000130B2070318B30A0030B3073308803ACD
:100A8800FF0080307F02031D4B2DFF303202031C14
:100A98004E2D4F2D5D2DFF3083120313B200003011
:100AA800B3000030A7000030A6000030A5000030D9
:100AB800A400831203133308803AFF0080307F02BA
:100AC800031D682D0130320203186B2D6C2D792D12
:100AD80083120313B201B3010030A7000030A6004F
:100AE8000030A5000030A400B101831203133208BE
:100AF800A8002808B800381C822D832D852DA6173C
:100B0800892D7F30A8002808A6053808A8000310FA
:100B1800280CA9002908A7003108A8002808A7045C
:100B28002D2C08000A128A15C4220A128A1183166B
:100B380003130514071183120313071509309700CF
:100B4800831603130C11831203130C110030A00039
:100B5800A1000A128A15D9220A128A1183160313D0
:100B680088018312031308100A128A15B9240A127D
:100B78008A11831603130616861606148611861321
:100B88008312031386158613831603130613831221
:100B98000313061738308100831603138101B1301F
:100BA800831203138F00E0308E00901010129016FD
:100BB800101406309100063092008B170B1783161D
:100BC800031301170B168B158B120B110C148312C0
:100BD80003130C10831603138C14831203138C1045
:100BE8000A128A1187270A128A11831203136308CB
:100BF800803ACB005D08803A4B02031D052E5C0845
:100C080062020318082E092E162E831203130613E8
:100C18005A30A0000030A1000A128A15D9220A12FF
:100C28008A11212E8312031306170030A000A10099
:100C38000A128A15D9220A128A11831203134C0345
:100C48004D04031D282E292E322E0A128A159926A4
:100C58000A128A1183120313CC01CD010A128A15D4
:100C6800B7220A128A110B3083120313CB004B08E8
:100C7800AE006308B0006208AF00A0300A128A1103
:100C88009D260A128A1183120313A401A40A0130B3
:100C98000A128A1561240A128A11A0300A128A15CA
:100CA8002D230A128A11163083120313CB004B0826
:100CB800AE005D08B0005C08AF00A0300A128A11CF
:100CC8009D260A128A1183120313A401A40A023072
:100CD8000A128A1561240A128A11A0300A128A158A
:100CE8002D230A128A11123083120313CB004B08EA
:100CF800AE005908B0005808AF00A0300A128A1197
:100D08009D260A128A110C3083120313CB004B085C
:100D1800A40001300A128A1561240A128A11A0302F
:100D28000A128A152D230A128A11F42D0A128A1121
:100D38000C2883120313B9002F30B1003108B40016
:100D4800702F25303A060319AA2EAB2EB72E3A0873
:100D5800B100390884003108831380000130B100E4
:100D68003108B907702FB5010130AE07FF302E07E3
:100D780084000A128A1500200A128A11BA00B100EA
:100D8800B2013208003A0319CA2E702F3108003A0E
:100D98000319822F643A0319D52E0D3A0319D52E5B
:100DA800702F3408840083130008B700840A0008F1
:100DB800B8000230B1003108B407B81FE42EE52EA0
:100DC800EE2E0330B1003108B504B709B809B70AE7
:100DD8000319B80ABA01BA0A3A08B1003107013E44
:100DE80084000A128A1500200A128A11B2000A1217
:100DF8008A1500200A128A11B30033083802031D2D
:100E0800072F3208370203180A2F0B2F0C2F162F23
:100E18000130B1003108BA0705303A06031D152F15
:100E2800162FF02E3508033903191B2F1C2F272FD7
:100E38002D30B10039088400310883138000013057
:100E4800B1003108B9073A08B1003108B600672F78
:100E58000A30A8000030A9003608B1003107013E69
:100E680084000A128A1500200A128A11A0000A12A8
:100E78008A1500200A128A11A1003808A300370831
:100E8800A2000A128A151B240A128A11831203135C
:100E98002108AB002008AA000A128A15A2230A1208
:100EA8008A11831203132808303EB2003208BA00B0
:100EB8003A08B100390884003108831380000130F2
:100EC800B1003108B907FF30B1003108B607360A5A
:100ED800031D6F2F702F2C2F0130AE07FF302E0708
:100EE80084000A128A1500200A128A11B1003108FA
:100EF800BA003A08031D812F822FA52E39088400D5
:100F0800831380010800831203131F151F198D2FE7
:100F18008E2F8A2F1E08C500C6014508C600C501C8
:100F2800831603131E08831203134507A00000301D
:100F3800031801304607A100A201A11BA203220841
:100F4800A30001300A128A1544270A128A11831253
:100F580003132308CA002208C9002108C800200872
:100F6800C7004030AC009C30AB006730AA001A3094
:100F7800A9004A08B0004908AF004808AE00470871
:100F8800AD000A128A1158200A128A11831203131B
:100F98002C08CA002B08C9002A08C8002908C7005D
:100FA8004A08A7004908A6004808A5004708A40061
:100FB8004130A3002030A2000030A1000030A00082
:100FC8000A128A11B9230A128A11831203132308F9
:100FD800BD002208BC002108BB002008BA000A1284
:100FE8008A1586250A128A11831203133B08DD002D
:060FF8003A08DC000800CD
:1010000008308A000408840A82070034013400345E
:101010000A34003464340034E834033410342734A0
:10102000533465347434203420343D342034253432
:101030006434203400345234653461346C342034E8
:0C1040003D342034253464342034003466
:10154E0001340034073400342F3401342534003490
:10155E0064008001840A0406031900340406B02ACC
:10156E0000300A128A15F1220A128A1501300A1267
:10157E008A15F1220A128A150800831603131F1307
:10158E00831203139F131F179F161F129F15831687
:10159E0003139F179F151F159F141F1083120313FC
:1015AE001F1408008312031320082104031DE02AD0
:1015BE00E12AE52AB4309600303095005A302006E4
:1015CE002104031DEB2AEC2AF02AB7309600A8302E
:1015DE009500080083120313A300881323080A1230
:1015EE008A150D230A128A15831203130817063063
:1015FE0083120313A2002F30A100A10B042BA20B08
:10160E00042B092B831203130813080083120313F0
:10161E00A000201C132B142B162B8816172B8812A8
:10162E00A01C1A2B1B2B1D2B08161E2B0812201D5F
:10163E00212B222B242B8815252B8811A01D282B1E
:10164E00292B2B2B08152C2B0811080083120313A2
:10165E00A800A601A701462B26082807A5002508E5
:10166E00840000080A128A15DE230A128A15013038
:10167E0083120313A6070318A70A0030A70726082C
:10168E002807A5002508840083130008031D502B8E
:10169E00512B332B080083120313A401A501201C28
:1016AE00592B5A2B602B2208A4070318A50A2308CE
:1016BE00A50701300310A20DA30DFF3E031D612BE4
:1016CE0001300310A10CA00CFF3E031D682B200857
:1016DE002104031D732B742B562B2508A1002408FF
:1016EE00A000080083120313A800A401A50120087E
:1016FE00A200A3012208A6002308A700281C882BFD
:10170E00892B8F2B2608A4070318A50A2708A507DF
:10171E0001300310A60DA70DFF3E031D902B0310E5
:10172E00A80C2808031D9C2B9D2B852B2508A1009A
:10173E002408A000080083120313280829040319A3
:10174E00A92BAA2BD92BAD01AD0AB82B0130031052
:10175E00A80DA90DFF3E031DAE2B0130AC002C08C9
:10176E00AD07A91FBB2BBC2BAD2B29082B02031DCC
:10177E00C22B28082A02031CC52BC62BCC2B2808EB
:10178E00AA022908031CAB03AB0201300310A90CFB
:10179E00A80CFF3E031DCD2B0130AD02031DD82B2F
:1017AE00D92BBC2B2B08A9002A08A80008008312ED
:1017BE000313A40024080F39A1002108A200240855
:1017CE00F039A1002108A30088172308A1000430D6
:1017DE000310A10CFF3E031DEF2B21080A128A15E0
:1017EE000D230A128A15831203130817343083123D
:1017FE000313A100A10B012C000083120313081385
:10180E0022080A128A150D230A128A15831203134F
:10181E000817343083120313A100A10B142C0000FF
:10182E00831203130813080083120313A601A701E2
:10183E00200821040319242C252C5C2CA501A50AB3
:10184E00332C01300310A00DA10DFF3E031D292CDA
:10185E000130A4002408A507A11F362C372C282CF4
:10186E0001300310A60DA70DFF3E031D382C2108D5
:10187E002302031D442C20082202031C472C482C53
:10188E004F2C2008A2022108031CA303A302261436
:10189E0001300310A10CA00CFF3E031D502C013093
:1018AE00A502031D5B2C5C2C372C2708A1002608F3
:1018BE00A000080083120313A7002703031D682C42
:1018CE00692C8E2C24087F3EA5002508AA002A0824
:1018DE00A50004300310A50CFF3E031D712C250836
:1018EE00A6002608A8002A080F39A5002508A90079
:1018FE0028080A128A15F1220A128A158312031376
:10190E0029080A128A15F1220A128A15B82C0230F9
:10191E002706031D932C942CB82C2408BF3EA5003B
:10192E002508AA002A08A50004300310A50CFF3EC6
:10193E00031D9C2C2508A6002608A8002A080F398E
:10194E00A5002508A90028080A128A15F1220A12F4
:10195E008A158312031329080A128A15F1220A1214
:10196E008A15080000300A128A150D230A128A15EC
:10197E00683083120313A500E330A400A40BC52C1A
:10198E00A50BC52CCA2C03300A128A15F1220A1295
:10199E008A151A3083120313A500F730A400A40B86
:1019AE00D62CA50BD62CDB2C03300A128A15F1226D
:1019BE000A128A153A3083120313A5002230A400AE
:1019CE00A40BE72CA50BE72C000003300A128A1596
:1019DE00F1220A128A1502300A128A15F1220A120F
:1019EE008A1502300A128A15F1220A128A15083057
:1019FE000A128A15F1220A128A1500300A128A1565
:101A0E00F1220A128A150C300A128A15F1220A12D4
:101A1E008A1500300A128A15F1220A128A1506302A
:101A2E000A128A15F1220A128A150800831203136C
:101A3E00A601A11F232D242D2B2DA009A109A00A3B
:101A4E000319A10AA601A60AA31F2E2D2F2D382D8C
:101A5E00A209A309A20A0319A30A0130A4002408AB
:101A6E00A606A701A8012008210403193F2D402D29
:101A7E00772DA501A50A4E2D01300310A00DA10D45
:101A8E00FF3E031D442D0130A4002408A507A11F0D
:101A9E00512D522D432D01300310A70DA80DFF3EE1
:101AAE00031D532D21082302031D5F2D2008220242
:101ABE00031C622D632D6A2D2008A2022108031C2F
:101ACE00A303A302271401300310A10CA00CFF3EA8
:101ADE00031D6B2D0130A502031D762D772D522D82
:101AEE00260803197B2D7C2D812DA709A809A70A8D
:101AFE000319A80A2808A1002708A000080003104F
:101B0E00831203133C0D3D0DBE003E08C400440875
:101B1E00031D922D932D9C2D0030BD000030BC0076
:101B2E000030BB000030BA00012E3A08BE003B0860
:101B3E00BF003C08C0003D08C1001F300310C10C9F
:101B4E00C00CBF0CBE0CFF3E031DA52D3E08C200EF
:101B5E004208C300BC17FF30BA05FF30BB05FF308B
:101B6E00BC050030BD059630C402C41FBF2DC02D6C
:101B7E00DA2D4408803A973E0318C62DC72DC82D7E
:101B8E00932D01300310BD0CBC0CBB0CBA0CFF3EE8
:101B9E00031DC92D0130BE003E08C407031DD82DFC
:101BAE00D92DC82DF12D20304402031CDF2DE02D40
:101BBE00EC2D932D0130BE000310BA0DBB0DBC0DE4
:101BCE00BD0DBE0BE32D0130C4024408031DF02DE4
:101BDE00F12DE12D43080319F52DF62D012EBA092D
:101BEE00BB09BC09BD09BA0A0319BB0A0319BC0A11
:101BFE000319BD0A08000B1C052E062E3B2E831260
:101C0E000313061A0B2E0C2E212E0430F200A830D0
:101C1E00F1000B30F000F00B122EF10B122EF20B26
:101C2E00122E192E013083120313E2070318E30A52
:101C3E000030E307861A242E252E3A2E0430F200A9
:101C4E00A830F1000B30F000F00B2B2EF10B2B2EE9
:101C5E00F20B2B2E322EFF3083120313E2070318E2
:101C6E00E30AFF30E3070B100B1D3E2E3F2E5F2EB7
:101C7E0038308312031381000130D2070318D30AC0
:101C8E000030D30753084F06031D4F2E52084E0641
:101C9E00031D522E532E5E2E86170D30F000F00BC4
:101CAE00562E831203138613D201D3018B120B11FE
:101CBE00831203130C1C642E652E6E2E97010715CE
:101CCE0009309700B1308F00E0308E000C108C1C64
:101CDE00712E722E8C2E063091000130D007031813
:101CEE00D10A0030D107E8305006033003195106EF
:101CFE00031D822E832E8B2E01308806D001D1013A
:101D0E000130CC000030CD008C108B1C8F2E902E0D
:101D1E00922E8B168B1074088A00730E8300FE0EA3
:101D2E007E0E0900831203135C086202F7005D0841
:101D3E00031C5D0A6302F8007808803AFF008030C9
:101D4E007F02031DAC2E1F307702031CAF2EB02E68
:101D5E00B22EF501F601780883120313A10077085D
:101D6E00A0002F30A2000130A3000A128A155223C0
:101D7E000A128A15831203132108D7002008D600F1
:101D8E007808A1007708A0000730A2000030A30059
:101D9E000A128A1552230A128A1575088312031322
:101DAE002007F50076080318760A2107F6005A0870
:101DBE007702D4005B08031C5B0A7802D500750815
:101DCE005607A90076080318760A5707AA00540882
:101DDE002907D80055080318550A2A07D90078088C
:101DEE00DB007708DA005908803AFF0086307F0260
:101DFE00031D032F403058020318062F072F0D2FF7
:101E0E00403083120313D8000630D9008312031317
:101E1E005908803AFF00A0307F02031D182FD130E1
:101E2E005802031C1B2F1C2F222FD030831203139A
:101E3E00D8002030D900103083120313A9002730A8
:101E4E00AA0058082902D8005908031C590A2A0268
:101E5E00D9006430A0000030A1005908A300580832
:101E6E00A2000A128A151D250A128A15831203135F
:101E7E002108CF002008CE00080083120313A8000B
:101E8E00280803194B2F4C2F602FA31F4F2F502FB5
:101E9E00602F2009AA002109AB002209AC002309FA
:101EAE00AD00AA0A0319AB0A0319AC0A0319AD0A4D
:101EBE00682F2308AD002208AC002108AB002008D3
:101ECE00AA002308220421042004031D6F2F702F63
:101EDE00792F0030A3000030A2000030A1000030A6
:101EEE00A000FF2F9630A4002408A9008B2F0130EC
:101EFE00A4002408A90701300310AD0CAC0CAB0CE8
:101F0E00AA0CFF3E031D832FFE302D05031D902FBF
:101F1E00912F7E2FAD2F0130A4002408A907013088
:101F2E00AA07003003180130AB0700300318013048
:101F3E00AC07003003180130AD0701300310AD0CB3
:101F4E00AC0CAB0CAA0CFF3E031DA52FFF302D05CC
:101F5E00031DB22FB32F922FBF2F0130A9020130D4
:101F6E00A4000310AA0DAB0DAC0DAD0DA40BB82F34
:101F7E00AC1BC22FC32FC92F023029020318C82F42
:101F8E00C92FB42F2918CC2FCD2FD52FFF30AA054E
:101F9E00FF30AB057F30AC05FF30AD050310A90C4B
:101FAE002908A400A501A601A70118300310A40D4D
:101FBE00A50DA60DA70DFF3E031DDD2F2408AA04B7
:101FCE002508AB042608AC042708AD04280803191D
:101FDE00F12FF22FF72FA31FF52FF62FF72FAD1797
:101FEE002D08A3002C08A2002B08A1002A08A0008F
:021FFE000800D9
:02400E00723FFF
:00000001FF
